:1000000002323BE4F9122452E9120022B93CF6E92B
:10001000C39478500C122452C37477991200228032
:10002000EE2225E02428F582E4343BF583E493FCBA
:09003000740193FD123ACD09227E
:03003B000238F692
:10004300023B1D020407E86480F8E933E8336011DA
:100053000460F0ED33EC337009E8FCE9FDEAFEEBF4
:10006300FF220460DED3EB9FEA9EE99DE8C2E78CA2
:10007300F0C2F795F0400CE8CCF8E9CDF9EACEFAF6
:10008300EBCFFB1203D285D0F05804700320D5B315
:10009300E80470075002B2D502041192D5EC046053
:1000A300F7E4CCC0E0C398F8603B94186008400DB7
:1000B300D0E0FB0203E9E4FBFAC9FC8028E830E462
:1000C30006E4C9FBE4CAFCE830E305E4C9CACBFC97
:1000D300E854076010F8C3E913F9EA13FAEB13FBCA
:1000E300EC13FCD8F130F52FC3E49CFCEF9BFFEE3F
:1000F3009AFEED99FDD0E0FBEF4E4D4C701222DBE2
:100103000302040EEC2CFCEF33FFEE33FEED33FD64
:10011300ED30E7EB0203E9EF2BFFEE3AFEED39FD9D
:10012300D0E0FB50130BBB0003020411ED13FDEEF3
:1001330013FEEF13FFEC13FC0203E9EC4D6011E82F
:10014300497017ED33EC3304600DE4FCFFFEFD2230
:10015300E933E8330470F80204071203D258046049
:1001630009E4CC24815006285009020411284003D5
:1001730002040EC0E0EB4A7044B98006D0E0FB02F3
:1001830003FDEF4E701CBD8008EBFFEAFEE9FD8026
:10019300EBE98DF0A4FEE5F0020227E9CDF9EAFED2
:1001A300EBFFEF89F0A4FCE5F0CE89F0A42EFFE489
:1001B30035F0CD89F0A42DFEE435F08067EF4E7065
:1001C30005BD80D780C3EF8BF0A4ACF0EE8BF0A419
:1001D3002CFCE435F0F8EF8AF0A42CE5F038FCE4CD
:1001E30033CB8DF0A42CFCE5F03BF8EE8AF0A42C85
:1001F300FCE5F038F8E433CF89F0A42CFCE5F038C3
:10020300CF3400CE89F0A42FFFE5F03EFEE433C9DE
:100213008DF0A42EFEE5F039CD8AF0A42FFFE5F092
:100223003EFEE43DFD33D0E0FB50070BBB000F0265
:100233000411EC2CFCEF33FFEE33FEED33FD020330
:10024300E9020411EC5D046005E85904700302043B
:10025300071203D2580460F6EC4860F2EC7004FD18
:10026300FEFF22C860DB2481C85009C39860025096
:100273000602040E9850CAF582E9294B4A7005AB71
:10028300820203FD75F0007C1A7880C3EF9BEE9A1F
:10029300ED99400DC3EF9BFFEE9AFEED99FDE84209
:1002A300F0DC23ACF0D0E0FFD0E0FED0E0FDAB8289
:1002B30020E7101BEB60BAEC2CFCEF33FFEE33FEB0
:1002C300ED33FD0203E9E803F830E705C0F075F00C
:1002D30000EF2FFFEE33FEED33FD40B830E7C28071
:1002E300AA74F8CC6480CCC86480C8F58204604FDB
:1002F300C3EB9FF5F0EA9E42F0E99D42F0E89C458E
:10030300F0603C501DE5825FFFE582D313CB5BCBEE
:10031300F42B5582FB50280ABA002409B90020089F
:10032300801DE5825BFBE582D313CF5FCFF4C3135C
:100333002F5582FF50090EBE00050DBD00010CC3F1
:10034300EB9FF5F0EA9E42F0E99D42F0E89C45F010
:100353006007CC4820E701B3EC2275F020800E75CE
:10036300F010800575F0087D007E007F003392D584
:1003730030D5031205CEEC334010EF33FFEE33FEDE
:10038300ED33FDEC33FCD5F0ED22E5F0247EA2D570
:1003930013CC92E7CDCEFF22EDD2E7CD33EC3392EF
:1003A300D524814006E4FFFEFDFC22FCE4CFCECD44
:1003B300CC24E0501174FF80EDC3CC13CCCD13CD0E
:1003C300CE13CECF13CF0470F030D5DE0205CEE9C5
:1003D300D2E7C933E833F892D5EDD2E7CD33EC3326
:1003E300FC5002B2D522EC30E7100FBF000C0EBE5A
:1003F30000080DBD00040BEB6014A2D5EB13FCED5C
:1004030092E7FD2274FFFCFDFEFF22E480F8A2D5F3
:1004130074FF13FC7D80E480EFED33EC3360100454
:10042300700FED547F7005740292E022740422046D
:1004330022E422ED33EC33600A047003BD8004EC44
:10044300B2E7FC22C0E0EFFBEEFAEDF9ECF81201A3
:100453003ED0E0F5F0EFFBEEFAEDF9ECF812061FF3
:10046300A3A3A3A3E8C0E0E9C0E0EAC0E0EBC0E0D7
:10047300C0F012013E12062FA3A3A3A312004DD076
:10048300F0D0E0FBD0E0FAD0E0F9D0E0F8D5F0D43A
:1004930022EF8DF0A4A8F0CF8CF0A428CE8DF0A489
:1004A3002EFE22BC000BBE0029EF8DF084FFADF0C1
:1004B30022E4CCF875F008EF2FFFEE33FEEC33FCAB
:1004C300EE9DEC984005FCEE9DFE0FD5F0E9E4CEE1
:1004D300FD22EDF8F5F0EE8420D21CFEADF075F0B0
:1004E30008EF2FFFED33FD4007985006D5F0F222B9
:1004F300C398FD0FD5F0EA22C2D5EC30E709B2D597
:10050300E4C39DFDE49CFCEE30E715B2D5E4C39F44
:10051300FFE49EFE1204A6C3E49DFDE49CFC80035D
:100523001204A630D507C3E49FFFE49EFE22BB015D
:100533000A89828A83E0F5F0A3E022500687F00956
:10054300E71922BBFE07E3F5F009E3192289828A42
:1005530083E493F5F074019322BB0110E58229F53E
:1005630082E5833AF583E0F5F0A3E0225009E9251B
:1005730082F886F008E622BBFE0AE92582F8E2F556
:10058300F008E222E5832AF583E993F5F0A3E993E2
:1005930022F8BB0111E58229F582E5833AF583E868
:1005A300F0E5F0A3F0225009E92582C8F608A6F089
:1005B30022BBFE09E92582C8F2E5F008F222EF4BDF
:1005C300FFEE4AFEED49FDEC48FC22C3E49FFFE445
:1005D3009EFEE49DFDE49CFC22EB9FF5F0EA9E4227
:1005E300F0E99D42F0E89C45F022E8600FECC3136C
:1005F300FCED13FDEE13FEEF13FFD8F122E8600FBD
:10060300EFC333FFEE33FEED33FDEC33FCD8F122C1
:10061300E0FCA3E0FDA3E0FEA3E0FF22E493FC746F
:100623000193FD740293FE740393FF22E493F87421
:100633000193F9740293FA740393FB22ECF0A3ED94
:10064300F0A3EEF0A3EFF022E493FB740193FA74AA
:100653000293F922D083D082F8E493701274019349
:10066300700DA3A393F8740193F5828883E47374E4
:1006730002936860EFA3A3A380DF8F258E248D23CD
:100683008C227F207E001239A58E308F31752B0B83
:10069300752C0B752D1F752E1FC209C2011234B99B
:1006A3007DFF7F817E00123889EF4E7040F52F1257
:1006B30009D67DFA7F087E011238897DFA1209F284
:1006C3007DA67401FFFE1238897D951209F27D51D2
:1006D3007401FFFE123889AA06AB077D407F257E91
:1006E300011233D1052FE52FC3940240C27B017A57
:1006F300007DFF7F817E001233D1E4F52F1209D6EE
:100703007B1F7D95120A157B047D40120A15123753
:100713000875F004A4FDACF012370175F040A4FF96
:10072300E5F04CFEEF4D120A1FC201C20212195628
:100733008F2A7D007C107F0A7E04123ACD7D6612DB
:1007430009FE7D777F0C7E04123889EF4E70117B92
:1007530001FA7DFE7F0C7E041233D17DCC1209FE9B
:100763007F007E041239A5EE540FFEE52F25E02409
:1007730026F8A60608A607052FE52FC39402500303
:10078300020700122DCA300A030209BEE4F52FE561
:100793002FC3940250F0C200E52F2401FFE433FE7F
:1007A300E53154FCFDEE4530FCEF4D7F207E001219
:1007B3000A09E6FC08E67F007E04120A09E6FE0841
:1007C300E6FFEE4480FCAD077F007E04123ACD7F46
:1007D3000F7E041239A5E48F3A8E39F538F5377F49
:1007E3000E7E041239A57E00EF5403FFE4FCFDC026
:1007F30004C005C006C00712373C7802120600D0B9
:1008030003D002D001D0001205C18F3A8E398D3842
:100813008C3712370F120613AB3AAA39A938A83707
:10082300C31205DC70030209B9E4FFFEFDFCA8371F
:10083300C31205DC70030209B912373C12370F12D9
:10084300063F123708FFD39409500CC3740B9F75EE
:10085300F003A4F5368008E6FFC3740F9FF536AFA7
:1008630025AE24AD23AC22E412035DC004C005C051
:1008730006C00712373CE412035DA804A905AA06C3
:10088300AB07D007D006D005D004120247121D8F44
:10089300E4FBFA79A0784112013E8F358E348D3313
:1008A3008C321236F150447F007E407D017C00ABD8
:1008B3003AAA39A938A8371205DC402F1237012488
:1008C300F4FFE434FFFE7B1F7A00E4FDFC1238D111
:1008D300742D252FF8A60712370824FDFFE434FFF3
:1008E300FE7B0F1238D1742B02097B1236F14019AB
:1008F3001236F160025003020982123701FFE53616
:10090300241FC39FD394004076123701FFC3741E84
:1009130095362FF53BFC120367AB35AA34A933A8F0
:100923003212004D12039B7B3D7A00E4FDFC12382A
:10093300D1EF25E0FFEE33FE74242FF582743F3EA2
:10094300F583E493F53C740193F53D540FF9F53EBB
:10095300E53CC4F854F0C8E53DC4540F48541FFFA8
:10096300F53F123701B53F07123708653E60107433
:100973002B252FF8A601742D252FF8A607D20030BA
:100983000034123701FF123A35EF753C003333332D
:1009930054F8F53B12370175F040A4FFE53B45F0F1
:1009A300FCE53C4FFD12370875F004A4FFEC45F05D
:1009B300FEED4F120A1F052F020792D2011234B91E
:1009C300AD31AC307F207E00123ACD1237D1D2093F
:1009D300AF2A22E52F2401FFE433FEE53154FCFD69
:1009E300EE4530FCEF4DFD7F207E00123ACD22AA6A
:1009F30006AB077F257E011233D122E4FBFA7F0C7D
:100A03007E041233D122FD123ACDE52F25E02426B0
:100A1300F8227A007F0F7E011233D122AC06440202
:100A2300FD7F267E01123ACD228F258E248D238CC5
:100A330022E4F528121D51123889EF64014E702209
:100A4300FF7E247D747C4AAB25AA24A923A8221205
:100A530002E4500E752C00752B24752AF475294970
:100A63008016121D17AF25AE24AD23AC2212024708
:100A73008F2C8E2B8D2A8C29C2031221E1AF2CAE31
:100A83002BAD2AAC29120DBC8F28E5286003020C7C
:100A9300F7122DCA7E3E7F327D007C271230767E90
:100AA3003E7F2C7D007C271230767FFA7EED7DEB36
:100AB3007CBA121CAC121CB5121C7079A0784112BE
:100AC30002478F4E8E4D8D4C8C4B7F007E007D20D8
:100AD3007C411220CAC004C005C006C007123640BC
:100AE300121CCCD003D002D001D00012013E12035D
:100AF3009B8E268F277F607EFE7D4D7C4C121CAC27
:100B03001202E460054003020C8AC2047F667E661B
:100B13007DA6121C167FE27EB87D007C4E12004932
:100B23008F538E528D518C501214CD8F28E528602F
:100B330003020CF7C2047F667E667DA67C3F121C0F
:100B4300AC12013E8F548E538D528C51E4F55512E5
:100B530035887F407E547D897C4B121CAC1202E4A5
:100B63005011752D01752E177531A0753202752F31
:100B730008800F752D01752E16753170753201754C
:100B83002F017530007DFB7F167E011238898F346B
:100B9300852F3D85303EAB27AA26AD31AF2EAE2D36
:100BA300122A828F33EF6036B40204AF328005E538
:100BB30032F404FFEF2534F534C364809480401E7F
:100BC300E5346480F8741F6480984012E534FB3385
:100BD30095E0FA7DFB7F167E011233D180B2E533B7
:100BE300600675280C020CF7120D6F6003020CF7F8
:100BF300120D94121D511238898F35E53564036047
:100C030005E535B40212121C107F887E457DC87C31
:100C13004E121C7079208015E535B4011B121C108F
:100C23007FBB7EEE7DA07C4F121C70797078C11261
:100C33001C538E338F348006752809020CF77BFF13
:100C43007A0FE4FDFCAF34AE331238D18E338F34D8
:100C5300AB34AA337DB0120DA98F36E535B401024A
:100C63000536AF367E00121C8D1238D1AA06AB07AB
:100C73007DFC120DA9121C851238D1AA06AB0712EE
:100C83001D581233D18008120D6F7068120D9475C0
:100C93003D10753E00AB27AA267DB07F127E011260
:100CA3002A82EF600575280D804A7F127E01123972
:100CB300A58E2D8F2E7F177E011239A58E2F8F3093
:100CC3007F1A7E011239A58E318F327F167E011273
:100CD30039A5EE5407F5338F34121D271238898F47
:100CE300357DFD7F187E011238898F36121D58120B
:100CF30038898F37D2031221E1E5286002FF22AD44
:100D03002EAC2D7F127E01123ACDAD30AC2F7F1762
:100D13007E01123ACDAD32AC317F1A7E01123ACD4B
:100D2300E5334480FCAD347F167E01123ACDE536BF
:100D3300C43354E04401FC748CFD7F187E01123AE5
:100D4300CDE53775F020A4ACF04410FD7F147E018F
:100D5300123ACD7B947A027DE57F197E011233D15D
:100D6300E535FB121D251233D17F0022C204AB2CC3
:100D7300AA2BA92AA8297FE27EB87D007C4E120007
:100D8300498F538E528D518C501214CD8F28E528E4
:100D930022C204852C54852B53852A52852951E47C
:100DA300F555123588227F127E011233D1AE33AF4F
:100DB300347C007D641204A6228F3B8E3A8D398CDD
:100DC300387F207E001239A58E3C8F3D121D5112B3
:100DD30038898F3E7D407F197E011238898F3F907D
:100DE3003D30121C2F121C434010121D17903D342E
:100DF300121C35121C43600540037F08227E3E7F90
:100E03001A1231A6E53EFB7D107F131210D3E53F86
:100E1300B41F047B168003E53FFB7D407F1912104E
:100E2300D3AF3BAE3AAD39AC3812369BEF600122FB
:100E33007B011210DBC2047553E27552B875510081
:100E430075504E1214CDEF6001227B021210DBD2DB
:100E53000475535675522175510375504E1214CDB6
:100E6300EF600122AD3DAC3C7F207E00123ACD12F3
:100E7300397DD20475548075539675521875514B4C
:100E8300E4F555123588C204E4F554F553F552F5EB
:100E930051F555123588121C3B6002500D7D017CC3
:100EA300001210EA7B0F7A008078E53ED39401406C
:100EB300197F887E457DC87C4E121C68792078C1D5
:100EC300121C53121CC18F428024E53E6401701B27
:100ED3007FBB7EEE7DA07C4F121C68797078C112B7
:100EE3001C53121CC1EF04F54280037F0922AF4259
:100EF300EF3395E0121C8C1238D1EFF5837BFF7A28
:100F03000FAF41AE401238D1EE4583FCEFFD121016
:100F1300EAAE40AF41121CC5121C851238D1AA0695
:100F2300AB07121D581233D1E53F75F00A84FCE478
:100F33001203678F4E8E4D8D4C8C4B7F667E667D84
:100F4300267C3F1220CAE4FBFA79D7784312013E8C
:100F53007B337AB379DC78C212004D7B9A7A997924
:100F6300A37841121C7079807841121C538F40AFD3
:100F73003F123A35EFFDAF40EF25E0FC7F1A7E01CB
:100F8300123ACD7F407E547D897C4B121C43400333
:100F93000210207B021210C7E4FBFA12109A7FFCA6
:100FA3007EBE7D007C4F12024779CE121C4E7BFF22
:100FB3007A07E4FDFC1238D18E448F457546057FD0
:100FC300C07EE17D647C4B121C5D50037546047D3D
:100FD300187C4B121C5950037546037D987C4A12AA
:100FE3001C5950037546027F007E1B7D377C4A12D5
:100FF3001C5D50037546017F007EE67DAA7C491285
:101003001C5D5003E4F546E54633333354F8454459
:10101300FCE545FD7F177E01123ACD8071121C3B22
:10102300600250557B011210C77B017A0012109A9F
:101033007F5E7ED07DB27C4F1202477948121C4EF0
:10104300121CA41238D18F447B807A967918784B7E
:10105300AF43AE42AD41AC40121C70794078C01230
:101063001C537B077A00E4FDFC1238D18F45EFFA5D
:10107300E544FB7DA07F1680107B03121D251233F0
:10108300D17B027A007DFD7F187E011233D11237A6
:101093008D1238127F00227DFD7F187E011233D11D
:1010A3007F667E667DA67C3FAB3BAA3AA939A8380A
:1010B30012013E8F438E428D418C40AB43AA42A91D
:1010C30041A840227A007D327F157E011233D1225E
:1010D3007A007E011233D1227A007D107F207E00B8
:1010E3001233D112384F227F127E01123ACD228F52
:1010F300328E318D308C2F7F207E001239A58E33B6
:101103008F347E3E7FF61231A6121CF81237451239
:101113001C2C121D011202E4600540030211B67F6C
:10112300CD7ECC7D4C7C3F121D01121CB51212EFFB
:101133007BCE7A4079E878B812013EC004C005C07E
:1011430006C0071212BF7B957AB77915782512016D
:101153003ED003D002D001D00012004DC004C00520
:10116300C006C0071213097B757AEC7935783B12F8
:10117300013ED003D002D001D00012004DC004C004
:1011830005C006C0077FB47E4E7DA87C41121D4674
:10119300D003D002D001D00012004D7B157AA37981
:1011A30041121C51121CA01238D1AA06AB077D7044
:1011B30002123F121CB8121CF81212EF7B347A0A87
:1011C300795D78B912013EC004C005C006C007129C
:1011D30012BF7B667A277994783512013ED003D00B
:1011E30002D001D00012004DC004C005C006C007E4
:1011F3001213097BAC7A0D799C783C12013ED00323
:10120300D002D001D00012004DC004C005C006C0FA
:10121300077F437E727DB77C3F121D46D003D00209
:10122300D001D00012004D7BC37AC7793E121C5106
:10123300121CA01238D1AA06AB077DF87F097E01E4
:101243001233D1121CF812369BEF6001227B01127C
:1012530012D67B021212D6AD34AC337F207E00123D
:101263003ACD12397DD204755400755324755274E6
:1012730012131FD204853254853153853052852F82
:1012830051755501123588C2047554007553BA75EA
:10129300525B12131FC2047F007E507DC37CC712B2
:1012A3001D0112004D8F548E538D528C5175550173
:1012B30012358812378D1238127F0022E4F54EF56D
:1012C3004D754C80754B40AF38AE37AD36AC3512EB
:1012D30020CA227A007D107F207E001233D17B0149
:1012E3007A007D117F1C7E011233D1221202478FB7
:1012F300388E378D368C35E4F54EF54D754C40758B
:101303004B401220CA22E4F54EF54DF54C754B4087
:10131300AF38AE37AD36AC351220CA22755149E429
:10132300F555123588228F568E558D548C53C20431
:10133300122EFE7FD77E3C7DAF7C4E120247E4FB2C
:10134300FA798078BF12004D12039B8F58122EFE3C
:101353007FED7E127D667C4E12024712039B8F59EE
:10136300E5592558FFE433C313EF13F5576002150E
:1013730057E4F5667567FFF566E5572401FFE43327
:10138300FEEF25E0FDEE33FCE4120362122EFE12A3
:10139300013E8F5B8E5A8D598C58122F07120247CC
:1013A3008F658E648D638C6212039B8E5C8F5DAC44
:1013B3005CAD5D122EB1AF65AE64AD63AC62122E4F
:1013C300BE8F618E608D5F8C5EE55D24FFFBE55C07
:1013D3001214C0E561FFE560FE1214B2AF61AE60A6
:1013E300AD5FAC5E121492E5571214A5C206121734
:1013F300E3EF70417D817F8BFE1238898F68EF2484
:1014030080FFE434FFFE123B118F69E569C39567E2
:101413005021856967900406E557F0A3E568F0A3BA
:10142300E55CF0A3E55DF0AF61AE60AD5FAC5EA3DC
:1014330012063FD20405570566E566C394035003BD
:1014430002137C2004037F0222900409E024FFFBA3
:10145300900408E01214C090040A1206131214B286
:1014630090040A120613121492900406E01214A5B3
:10147300900407E0FB7A007D817F8B7E001233D1DD
:10148300C2071239CBEF64027F0060027F02227829
:10149300101205EDAB07AA067D307F887E0012335C
:1014A300D122FB7A007DA37F897E001233D122E40F
:1014B300AB07AA067DF07F87FE1233D12234FFFAF1
:1014C3007DD47F887E001233D1227F207E001239A3
:1014D300A58E548F557A003004047B0280027B0171
:1014E3007D107F207E001233D1756207AF62123AFE
:1014F300BBAC06AD07E4120362AB53AA52A951A8D1
:101503005012013E8F598E588D578C567F667E7FC1
:101513007D62122ECE400D7F267EE57DE5122ECE16
:1015230060054003D562C5E56224FFFBE434FFFA9E
:101533007D867F1F7E011233D17FAC7EE97DA312AE
:101543002ECE7F00600440027F018F62EFFB7A00A2
:101553007DAA7F1C7E011233D1E5622401FDE433B1
:10156300FCE4120362122F0712013E122EB5AF598B
:10157300AE58AD57AC561202478F618E608D5F8CAB
:101583005E12039BE412035D122EB5AF61AE60AD34
:101593005FAC5E122EBE8F5D8E5C8D5B8C5AE4FF5A
:1015A300FE7D807CC0AB61AA60A95FA85E12004D7E
:1015B30012039B7DD412165FAF5DAE5CAD5BAC5A7C
:1015C30078101205ED7D3012165FE55DFFE55CFED8
:1015D300AD07AC067F1D7E01123ACDC2057559FFDA
:1015E300E4F556E556121652D2061217E3EF702AA7
:1015F3007DA37F217E011238898F5AEF2480FFE477
:1016030034FFFE123B118F5BE55BC395595009858F
:101613005B59855657855A58D2050556E556C394E6
:101623000340C0E557121652E558FB7A007DA37FAD
:10163300217E011233D1AD55AC547F207E00123A86
:10164300CD2005087F033004027F04227F0022FBA4
:101653007A007D217F217E011233D122AB07AA06B6
:101663007F1E7E011233D1227F207E001239A58E88
:101673002B8F2CE52C540364017006FBFA7D448008
:1016830005E4FBFA7D337F82FE1233D17E3C7F4239
:101693001231A61200031232C7A907E96001227BA7
:1016A300011224311233D112384F7BFF7A007D703F
:1016B3007F207E011233D1D2041228BEC004C0059C
:1016C300C006C007122406122476D007D006D00520
:1016D300D0041200497B007A24797478C912004D32
:1016E3008F308E2F8D2E8C2DC2041224A11214CD77
:1016F300A907E960061217D7AF012212242F12336C
:10170300D17A001224BE1233D1123A524006121774
:10171300D77F0422AD2CAC2B7F207E00123ACD1252
:10172300397DD2041224061224231235881224C9C7
:101733001238898F2D300154E4FBFA7D777F0C7EBC
:10174300011233D1E52D64016006E52D6402703981
:10175300E5125403F52EFB7A001217CDE52E24FF74
:10176300FFE434FFFEEFF4FBEEF4FA7D217F0D7E00
:10177300011233D1E52D147F0070027F01E51213AE
:1017830013543F6F602E7F07227F0722E52D6401EC
:101793006009E52D640260037F0722E52D2401FB28
:1017A300E433FA1217CD7D657F0C1217C07D437F9A
:1017B3000D1217C012378D1238127F0022E52D64E7
:1017C30003FB7A007E011233D1227D877F0D7E01D8
:1017D3001233D122AD2CAC2B7F207E00123ACD22C6
:1017E300E4F56D756E7F7570807571FFF56FF57239
:1017F300300613756A01756B21756CA3FBFA7D21A5
:101803007F1C7E018011756A00756B8B756C81E49A
:10181300FBFA7D217F86FE1233D17F657ECF7D0B60
:101823007C39122F07122EC8C374FF9FF51E74FF55
:101833009EF51DE4FBFA121945BF03037F0122E461
:10184300F573757440E574604E122EA3246DF8E6AB
:101853004574F61219318F75E575B4030C122EA376
:10186300246DF8E66574F68026E57564027020122F
:101873002EA3246E122EA0246DF8E6D39F501012CF
:101883002EA3246FF87601122E98246EF8A607E58E
:1018930074C313F57480AE122EA3246EF8E6601F92
:1018A300121931EF6402600E122E98246EF8E6C30B
:1018B3009F500C068009122EA3246EF81680D805BB
:1018C30073E573C394025003021845E56DB47F0AB0
:1018D300E571B48005C3E570801FE5726018C3E548
:1018E3006D956EFFC3E5709571FEC39F4008EE13BF
:1018F3002571F573800BC3E56D956EC313256EF5E6
:1019030073E573FB7A00121945EF640260100573E7
:10191300E573FB7A00AD6CAF6BAE6A1233D1A206EE
:1019230092071239CBBF02037F00227F0122FB7A89
:1019330000AD6CAF6BAE6A1233D1A20692071239B7
:10194300CB22AD6CAF6BAE6A1233D1A206920712F3
:1019530039CB227F207E001239A58E418F42C203EC
:101963001221E1A2019203121ABC8F40E5406003E9
:10197300021A09122DCA122D0A300203021A092073
:1019830001261224FA123889BF020C7D55121A9AC5
:10199300E4FBFA7D33800A7D66121A9AE4FBFA7D32
:1019A300447F0D7E011233D112242F1233D112241E
:1019B300C0123889EF4E701BFA1224BE1233D17B4A
:1019C300011224311233D1E4FBFA7D117F1C7E0115
:1019D3001233D1121AB0AF18AE17AD16AC15A2015F
:1019E30092031229A18F40E540701B7DDD121AA5D9
:1019F30012243A1233D1122404784712241A1235CE
:101A030088C2031226F57DA07F027E041238898ED8
:101A1300438F447DA07F017E041238898E458F4613
:101A23007DB07F037E041238898E478F48D203121C
:101A330021E1121AB0E5406002FF22200227AB44E5
:101A4300AA437DA07F027E041233D1AB46AA457D13
:101A5300A07F017E041233D1AB48AA477DB07F0338
:101A63007E041233D112246B1233D1E54230E007E6
:101A7300E4FBFA7D668005E4FBFA7D777FC07E0593
:101A83001233D17D20121AA5E4FBFA7D887F0C7EE8
:101A9300041233D17F0022E4FBFA7F0C7E01123360
:101AA300D122E4FBFA7F0C7E041233D122AD42AC87
:101AB300417F207E00123ACD227F207E001239A57D
:101AC3008E4A8F4B7E3D7F1C1231A6E54B54036437
:101AD300017006FBFA7D228005E4FBFA7D117F820B
:101AE300FE1233D1300327E51213135401FFC374DD
:101AF300029FF54CFB1224C71233D11224FA123879
:101B030089E51254036F7001EE60287F06221224C8
:101B1300FA123889EE7019EF14600B24FE60070483
:101B2300700E7B0180027B021224C71233D1800323
:101B33007F062212242F1233D11224C0123889EFC8
:101B43004E70327B01FA7D107F20FE121BFCD20403
:101B53001228BEC004C005C006C007122406122402
:101B630076D007D006D005D00412004978CB1224D2
:101B730098C20480387B011224311233D1123A52B5
:101B830040037F0322C2041228BE8F4F8E4E8D4D19
:101B93008C4C12242F121BFCD204122406AB4FAA26
:101BA3004EA94DA84C12004D784B1224981214CD17
:101BB3008F49AD4BAC4A7F207E00123ACDE5496098
:101BC30002FF2212397D1232C78F49E54960012293
:101BD300120003D20475544075535475520975515C
:101BE3004BE4F55512358812240412241812358853
:101BF30012378D1238127F00221233D112384F7BE5
:101C0300FF7A007D707F207E011233D1227FEC7E2C
:101C1300517D387C3FAB2CAA2BA92AA82912013E5F
:101C2300A804A905AA06AB0722903D3CE4FBFAF9F8
:101C3300784012061F0202477F607EFE7D4D7C4C7A
:101C4300AB3BAA3AA939A8380202E4E4FBFA78C20A
:101C530012004D02039B7F807E96AB43AA42A941AB
:101C6300A8400202E4AB3BAA3AA939A838120247BA
:101C7300E4FBFA2212061FAB25AA24A923A82202F9
:101C830002E4C3740F9FFFE49EFE7B0F7A00E4FD22
:101C9300FC22AE3BAF3CE4FCFDC30205DC8E398F76
:101CA3003A7BFF7A00E4FDFC22AB2CAA2BA92AA8DD
:101CB300292212013E7B007A2479747849228E40CE
:101CC3008F417C007D640204FBE412035D7B817A17
:101CD300047935783F02013EE4FBFA7D417F4022DF
:101CE3007DC87F0A7E0122C3E5409544F540E53F68
:101CF3009543F53F22AF32AE31AD30AC2F22AB323C
:101D0300AA31A930A82F22E5442540F540E5433503
:101D13003FF53F22E4FBFAF9784022853982853882
:101D230083227A007D327F157E0122E493FE7401C3
:101D330093FF740293FD22740493FFAD3EED33953C
:101D4300E0FC22AB38AA37A936A83502013E7D1044
:101D53007F137E01227D857F147E01223E9248DA25
:101D63003ECCCCCD3F2AAAAB400000003F80000010
:101D73003F9837F03FB504F33FD744FC3E31721729
:101D83003EB172173F0515913EDE5BD9D201800249
:101D9300C201EDD2E7F8CD33EC3304700BBD8005FF
:101DA30092D502041102040740FBD31460F2F5F04C
:101DB3007C3FEE7A00C39496C8948B40230AC89460
:101DC30069C8941A401A0AC89468C8941F40110A33
:101DD300C8945AC89425400805F07A00CDC2E7CDCF
:101DE300C0F08C518D528E538F54EA2323C0E024CC
:101DF3006FF582E4341DF58312062F12004DECC0FB
:101E0300E0EDC0E0EEC0E0EFC0E012061FA851A96C
:101E130052AA53AB54120049D0E0FBD0E0FAD0E011
:101E2300F9D0E0B2E7F81202478C518D528E538FEE
:101E330054901D5F7403120447A851A952AA53ABCF
:101E43005412013ED0E0600F247BF582E4341DF58B
:101E53008312062F12004D8C518D528E538F54D006
:101E6300E0C3947FFDE49400FC1203627B187A7252
:101E73007931783F12013EA851A952AA53AB5412AB
:101E8300004D30010B7BD97A5B79DE783E12013E3F
:101E930022752B50752C007D2212243C1233D11253
:101EA300243A1233D1122404E4FBFAF978401201E4
:101EB3003E7B007ABA795B78491224201235887DFB
:101EC300407F197E011238898F2D30010EE4F52EE3
:101ED300E52E7D967F13121FA780367D527F137EDA
:101EE300011238898F2E80291224E64003021F7DB8
:101EF300E52EC3940F4003021F7D052EE52EFB7ACA
:101F0300003001047D9680027D527F137E011233DF
:101F1300D11236408E2F8F3080CEE52DC3941950C9
:101F230061E52E640F705B1224E65056E52DC394D1
:101F330019504F052DE52D7D407F19121FA712362D
:101F4300408E2F8F30AC2FAD30E4120362C004C03B
:101F530005C006C007AC31AD32E412036212247629
:101F6300D007D006D005D0041202477B667A667983
:101F730086783F1202E460025008852F31853032A3
:101F83008098C3E5309421E52F940B50057E007FA4
:101F930005227D771224811233D112247F1233D18B
:101FA300E4FEFF22FB7A007E011233D12212243396
:101FB3001238898F3D1224F01233D1E4FBFA7D8865
:101FC3007F087E021233D112243A1233D11224DB5A
:101FD3001233D112246B1233D1752DA07536A0E5BF
:101FE3003DB40117752B05752CC37534057535C4C0
:101FF3007D441220BFE4FBFAFD8016752B05752C7A
:10200300C57534057535C67D551220BFE4FBFA7DD1
:10201300117FC07E051233D1E4FDFCAF2CAE2B1231
:102023003350E4FDFCAF35AE34123350E4F52EF5F6
:102033002FF537F538F53E122444E493FE740193EB
:10204300FFC3E52F9FFFE52E9EFE7BFF7A037D00F6
:102053007CFC1238D18E308F3112244474019325C5
:102063002FFFE493352EFE1238D18E328F33122494
:1020730044E493FE740193FFC3E5389FFFE5379E65
:10208300FE1238D18E398F3A1224447401932538C5
:10209300FFE4933537FE1238D18E3B8F3C7B007AB9
:1020A30000792B122C367B007A007934122C3605FA
:1020B3003EE53EC39403500302203A22E4FBFA7F39
:1020C300C07E051233D1228F4A8E498D488C47E456
:1020D300FFFE7D807C3FAB4AAA49A948A84712026C
:1020E300E47009AF4AAE49AD48AC4722AF4AAE49A6
:1020F300AD48AC4712041CFBAF4EAE4DAD4CAC4BE0
:1021030012041CFFBF0108E4FFFE7D807C3F22EF29
:1021130064046022EB6404601DBB0127E4FFFEFD41
:10212300FCAB4EAA4DA94CA84B1202E46008400632
:10213300E4FFFEFDFC2274FFF54EF54DF54CF54B27
:102143000221D8E4F54FF550FFFEFDFCAB4AAA4946
:10215300A948A8471202E4504BAF4EAE4DAD4CAC6C
:102163004B12039B8E4F8F50AC4FAD50EC1203625A
:10217300C8ECC8C9EDC9CAEECACBEFCBAF4EAE4D62
:10218300AD4CAC4B120049E4FBFAF9F81202E470CF
:10219300A5AF4AAE49AD48AC471204368F4A8E49C3
:1021A3008D488C47AF4AAE49AD48AC47121D93AB3F
:1021B3004EAA4DA94CA84B12013E1230148F4E8EDD
:1021C3004D8D4C8C4BE55030E00B1204368F4E8E08
:1021D3004D8D4C8C4BAF4EAE4DAD4CAC4B22E4F51C
:1021E30049F54A7F20FE1239A58E4D8F4E20030AF2
:1021F3009003E8E54DF0A3E54EF07924E96052251C
:10220300E0249CF582E4343FF583E493F54B7401B9
:1022130093F54CE925E0249EF582E4343FF583C32E
:10222300740193954CE493954B402230030512229D
:10223300D580081222B6ECF0A3EDF0054AE54A700A
:10224300020549054CE54C70CA054B80C619198037
:10225300ABE4F9E924FDFDE434FFFC7F207E0012AA
:102263003ACD754B01754C1C3003051222D58008FD
:102273001222B6ECF0A3EDF0054AE54A70020549D7
:10228300054CE54C7002054BD39423E54B94014078
:10229300D709E9640270BC30030D1237D19003E80B
:1022A300E0FCA3E0FD8004AD4EAC4D7F207E001228
:1022B3003ACD22AF4CAE4B1239A5AC06AD07E54A79
:1022C30025E0FFE54933FE74002FF58274003EF5E7
:1022D3008322E54A25E0FFE54933FE74002FF582AA
:1022E30074003EF583E0FCA3E0FDAF4CAE4B123A25
:1022F300CD228F258E248D238C22903D38121C777E
:10230300400A903D44121C77600540037F0A221265
:102313001D17AF25AE24AD23AC221202478F298EA1
:10232300288D278C26903D3C121C77601B4019900A
:102333003D40121C775011121D17903D40121C3561
:102343008F298E288D278C26C2031221E1AF29AE57
:1023530028AD27AC261210F28F2AE52A7061122DC0
:10236300CA121CDB7E041233D1121CDB7E02123331
:10237300D17E3F7F147D007C27123076121C2CAB5C
:1023830029AA28A927A8261202E4600250047D7016
:10239300800F7B027A007D607F1A7E011233D17D2C
:1023A300F87F097E011225018F2A121CE312388956
:1023B3008E2B8F2C7F097E011239A58E2D8F2ED265
:1023C300031221E1E52A6002FF22AB2CAA2B121C87
:1023D300E31233D17D8C7C317F067E01123ACD7DB1
:1023E3008C7F077E01123ACDAD2EAC2D7F097E0185
:1023F300123ACDAF29AE28AD27AC261237457F0060
:1024030022C204AF18AE17AD16AC1579A07840E41C
:10241300FBFA02024778C77B007A5079C312004D5A
:102423008F548E538D528C51E4F555227B027A00E2
:102433007D107F207E00227D77E4FBFA7F0C7E04F3
:1024430022E53E25E024A0F582E4343BF58322E92E
:1024530075F0288475F018A4FFE92400FDE4340521
:10246300CD2FFFED35F0FE227B017A007DFF7FC08B
:102473007E0522A804A905AA06AB07227D227B01BB
:102483007A007F0C7E0422D3903D2E740193954EE7
:10249300E493954D227B407A54790912004D8F5372
:1024A3008E528D518C5022C3E568956AE567956914
:1024B30022C3E5439545E5429544227B017D667F32
:1024C3001C7E01227A007DBA7F037E0122FEC3EFC8
:1024D3009401EE64809480227B017A007D337F082F
:1024E3007E0222C3E530952CE52F952B227B017AC2
:1024F30000E4FDFF7E01227D877F0D7E01228E2F6A
:102503008F308D31753206121CDB7E021233D112ED
:102513001CDB7E041233D1123640121CCC12039BF7
:102523008E338F347E021225F27E041225F2123688
:1025330040121C23AE33AF34121C99500CE4F53512
:10254300753619D201C202800A75351F7536F6C277
:1025530001D2023001067E3F7F0880047E3F7F0E5A
:10256300AD34AC33123076920020004A121CE312D1
:102573003889EF65357001EE703CAD31AF30AE2F69
:102583001238898F37E5376003B4FF037F0022AF2A
:1025930036EF3395E0FEE5372FFFE43EFE121CA431
:1025A3001238D1AA06AB07AD31AF30AE2F1233D1FB
:1025B3007B107A00801F300222121CE31238898FAD
:1025C300370537AF377E007B1F7A00E4FDFC1238F6
:1025D300D18F37EFFB121CE31233D11532200007E2
:1025E300E532600302250A7F0E3000027F00227B62
:1025F300017A007D417F401233D1227F207E001279
:1026030039A58E228F23C2031221E1A20092011267
:10261300166B8F24E5247043122DCA122D0AA200D3
:102623009201121E948F24E5247030122D0A122475
:10263300047B007ABA795B78491224201235881218
:102643001FB0C2047554007553BA75525B75514976
:10265300E4F555123588D2031226F57DA07402FFE6
:10266300FE1238898E258F267DA07F017E021238C7
:10267300898E278F287DB07F037E021238898E29A9
:102683008F2AD2031221E1AD23AC227F207E0012D8
:102693003ACDE5246002FF22AB26AA257DA0740271
:1026A300FFFE1233D1AB28AA277DA07F017E021241
:1026B30033D1AB2AAA297DB07F037E021233D11214
:1026C300246B1233D1E52330E007E4FBFA7D448029
:1026D30005E4FBFA7D557FC07E051233D11224DB5E
:1026E3001233D1E4FBFA7D107F087E021233D17FCF
:1026F30000227BFF7A3B79288B498A4A894B755B99
:10270300A07552B0300310754E02754F017402F577
:102713004CF54DF550800F754E04754F01754C0403
:10272300754D0275500475510375570075588075C2
:1027330055FF7556807F501227DA7DBF1227D07D53
:10274300FF1227C81236408E628F637DFF1227D097
:102753007DBFAF4FAE4E123ACD1236408E648F65B9
:10276300C3E5639565E56295645008854C59854DCD
:102773005A8006854E59854F5A7DFF7C071227C81C
:102783007560077561FF755E05755FFF7F591227D9
:10279300DAE5542410F558E43553F557E55424F09D
:1027A300F556E55334FFF5557F501227DAAD5DAC8E
:1027B3005CAF5AAE59123ACDAB54AA53AD52AF5196
:1027C300AE500233D1AF4FAE4E123ACD227C07AF9B
:1027D3004DAE4C123ACD228F6674FFF567F568A8AB
:1027E30007E82405F8E6F56B08E6F56CA807E82486
:1027F30007F8E6F56D08E6F56EA807E6F57108E655
:10280300F572A807E82402F8E6F573FD1228AF8EE7
:10281300698F6AC3E56E956CFFE56D956B1224D0E5
:10282300405E7C007D021204FB8E6F8F701224AA1F
:10283300500BAD731228AF8E698F6A8014AB6CAAEC
:102843006BAD73AF72AE711233D11236408E678F98
:1028530068D3E5709400E56F64809480402212246D
:10286300AA500FC3E56E9570F56EE56D956FF56D26
:1028730080A1E570256CF56CE56F356BF56B809386
:102883001224AA5006AE6BAF6C8004AE6DAF6EE53A
:10289300662403F8A60608A607E5662403F8E6FA05
:1028A30008E6FBAD73AF72AE710233D1AB6EAA6DA6
:1028B300AF72AE711233D1123640227F207E0012E6
:1028C30039A58E508F517A003004047B0280027B3D
:1028D300017D107F207E001233D17DD07F1E7E01CB
:1028E3001238898E528F537F1D7E011239A5E4FC65
:1028F300FDC004C005C006C007FEE553122F29D052
:1029030003D002D001D0001205C18F578E568D55CA
:102913008C547DAA7F1C7E01123889EF04F5587D03
:10292300867F1F7E01123889EF04F559AD51AC50F3
:102933007F207E00123ACDAF59122EAA122F17C054
:1029430004C005C006C007AC58E4120367D003D027
:1029530002D001D00012013EC004C005C006C0076A
:10296300AF57AE56AD55AC54122EF0C004C005C0DF
:1029730006C007E552C4F854F0C868FEE553C454D2
:102983000F482404122EE8D003D002D001D0001245
:10299300004DD003D002D001D00012013E228F4C53
:1029A3008E4B8D4A8C497DFA7F087E011238898FC0
:1029B3004F7B017A007DDD7F0C7E041233D112241C
:1029C3003A1233D1C204AF4CAE4BAD4AAC491224D8
:1029D3000E12241812358830032675500F800F12FB
:1029E300248A40411550E550648094804037E55077
:1029F300FB3395E0FA7D517401FFFE122A7780DFE5
:102A0300755002801012248A401B05500550E55072
:102A1300D3940F5010E550FB7A007D527F137E0153
:102A2300122A7780E0C3E54D9410500F054F054FF0
:102A3300E54F94395005122A6180EA12248A400E28
:102A4300054FE54FD3943E5005122A6180EDC3E54F
:102A53004E9421E54D940B7F0050027F0522E54FF4
:102A6300FB7A007DFA7F087E011233D11236408E45
:102A73004D8F4E221233D11236408E4D8F4E228E01
:102A8300388F398D3A8A3B8B3C123640121C231205
:102A93001C9550028001C39200AD3AAF39AE381293
:102AA30038898E3F8F40E53AC4540FFFE53A540FFF
:102AB300FEC3EF9E04FF123ABBEF24FFF542EE3450
:102AC300FFF541754300754401E54425E0F544E510
:102AD3004333F543300005121CEA8003121D0A122A
:102AE3002B441233D1123640121C23121C957F0043
:102AF30050027F01A200E433B50713C3E544953EBA
:102B0300E543953D40C37F013000027F0222D3E5B8
:102B1300449401E54394004025E54313F543E5441C
:102B230013F544123640121C23121C954005121D46
:102B33000A8003121CEA122B441233D180D07F0087
:102B430022AB42AA41E4FDFCAF40AE3F1238D18E26
:102B53003F8F40AB40AA3FAD3AAF39AE38227581C3
:102B6300D0E4F5A27591FFF59075A10775A9FF75DE
:102B7300A880758901C2A0D2A13008FDE50A12061A
:102B8300572BB2002BB9012BBD022BC1032BC5045C
:102B93002BCC052BDB062BEA072BF1082BF8092C92
:102BA300000A2C1A112C23122C2EFF00002C31C2E8
:102BB300083009FD8042C200805FC2018064C20008
:102BC3008002D2001235E48065AF18AE17AD16ACA3
:102BD30015120A2C8F908056AF18AE17AD16AC1590
:102BE3001222F58F9080471239EF8F908040123A6E
:102BF3006E8F908039850B12E4F5908031E4F59067
:102C0300C20A7F2DFE1239A5E4FCFD7802120600EC
:102C130012067D8F908017D2001225FE8F90800EB2
:102C2300D201C2021219568F908003759006C20812
:102C3300022B7C8B3F8A40894174FFF542F5439018
:102C4300000512055CF54785F04690000712055C08
:102C5300F54985F048122CF98E448F45C3E5499513
:102C630047FFE54895461224D0405B7C007D021265
:102C730004FB8E4A8F4B1224B4AB3FAA40A94150A8
:102C830009122CF98E448F458014120531FFAEF0E2
:102C9300AD47AC461233501236408E428F43E54B5C
:102CA300454A60221224B4500FC3E549954BF549B8
:102CB300E548954AF54880A4E54B2547F547E54A9D
:102CC3003546F54680961224B45006AE46AF47808B
:102CD30004AE48AF49AB3FAA40A941900003EE8F31
:102CE300F0120594120531FFAEF090000312055C5B
:102CF300FDACF0023350120531FFAEF0AD49AC48E4
:102D030012335012364022754905754AC7122433CF
:102D13001238898F4BE4FBFAFDFF7E011233D11287
:102D2300247F1233D112246B1233D1E54BB401113A
:102D33007D66122DA07D22122DA07D30122DC08024
:102D43001A7D77122DB57D33122DB57DC0122DC09E
:102D53007402254AF54AE43549F5497FC17E0512D7
:102D630039A5EE54F070F4E4FBFA122DABC203AFB5
:102D73004AAE49122F327BFF7A07122DABE54A2464
:102D830001FFE43549FEC203122F32E4FBFA7D2230
:102D93007F0C7E041233D11224F00233D1E4FBFA08
:102DA3007FC07E051233D1227DA07F017E041233C2
:102DB300D122E4FBFA7FC07E051233D1227CFF7F50
:102DC300C27E05123ACD227D207F0A7E0412388905
:102DD300E47E01A807088005C333CE33CED8F9F5C6
:102DE3004A8E497DEC7F037E041238898F4BE54B75
:102DF300C39406500F7402A807088002C333D8FC9B
:102E0300F54B8003754B01C205123522E4FBFAF939
:102E13007840120247C004C005C006C007AC4BE4AB
:102E2300120367122476D007D006D005D00412020D
:102E330047C004C005C006C007AC49AD4AE412034D
:102E430062D003D002D001D0001202478F4F8E4EC2
:102E53008D4D8C4CAF1CAE1BAD1AAC19AB4FAA4EAB
:102E6300A94DA84C12013E79407841122412120355
:102E73009BC374FF9FF51474FF9EF51322F582E440
:102E83003550F58312064B75F002E553A4F58285A0
:102E9300F08302055CE57375F003A4246DF8E6FF87
:102EA300E57375F003A422123ABBAC06AD07E41236
:102EB3000362A804A905AA06AB07221200497849B0
:102EC300E4FBFA798012013E02039B7C4FAB59AAC3
:102ED30058A957A8560202E4AF5FAE5EAD5DAC5C85
:102EE3000202472401FDE43EFCE4020362E4120310
:102EF3005DE4FBFA79807849020247AB56AA55A9EB
:102F030054A85322AB1CAA1BA91AA81922855182C3
:102F130085508322AF1CAE1BAD1AAC19020247AD1C
:102F230082AC837E0022540FFFE478100206008EE9
:102F33004C8F4D3003067E037FFF80047E007F3F6E
:102F43008E588F59AF4DAE4C12344B8E558F568ED3
:102F5300538F541236408E4F8F508E518F52E556F9
:102F63002401FFE435551238C3AC06AD07122FD147
:102F7300122476AE4FAF50E4FCFDC31205DC7FFF95
:102F830050027F018F57754E08AF57EF3395E0FE20
:102F9300E5562FFFE5553E1238C38E558F56AD5675
:102FA300AC55122FD18E4F8F50C3E5509552E54F3C
:102FB3009551500C854F5185505285555385565424
:102FC300D54EC6AD54AC53AF4DAE4C023350AF4D9E
:102FD300AE4C1233501236402233DA929E35B16032
:102FE30011377FE5FE392184893AAEC3FF3C1D9535
:102FF3005B3D6358473E75FDF03F3172183F8000DB
:1030030000C2D5020411020407BD80FA50F3020482
:103013000EED33EC330460F17B3B7AAA79B8783F49
:1030230012013EED33EC3392D5247B5011A2D570BF
:10303300DB500BED448024045004A2D580CEEFFB7B
:10304300EEFAEDF9ECF812039BEFF582F404FC12AF
:10305300036712004DC082902FDC7409120456EDF1
:1030630033CC33D0F092D525F0A2D57001C313CC65
:1030730013FD228E388F398C3A8D3B8F828E8312CB
:103083001D2E1238898F3E1236408E3C8F3DC3EF82
:10309300953BEE953A7F0050027F01121D1E740589
:1030A300936F704B740393FF253EF53ED3EF64801B
:1030B3009480400F121D3AD3ED9F7480F86C9840B2
:1030C30002802C121D1E740393C364809480500DE0
:1030D300121D3AC3ED9F7480F86C984012121D1EA6
:1030E300121D2EE53EFB3395E0FA1233D18098D3BF
:1030F300E53D953BE53C953A7F0040027F01121D7B
:103103001E740593B50703D38001C3227DA37F8972
:103113007E00123889EF122EE6C004C005C006C037
:1031230007E4FBFAF97840122F17D003D002D0013D
:10313300D0001202478F678E668D658C647DD07FC9
:10314300887E001238898E688F697DF07F877E00C4
:10315300123889E4FCFDC004C005C006C007FEE5C3
:1031630069122F29D003D002D001D0001205C11259
:103173002EF0C004C005C006C007E568C4F854F0CB
:10318300C868FEE569C4540F48122EE6D003D00286
:10319300D001D00012004DAB67AA66A965A86412DE
:1031A300013E228E508F518F828E83740993F55284
:1031B300E552604614F553122F10122E87FFAEF01E
:1031C300C006C007122E8AFFAEF01239A5E55124BE
:1031D30006122E80F4FDE5F0F45EFEEF5DFF122F84
:1031E30010A3A3A3122E87FDEE45F0FCEF4DFDD0F7
:1031F30007D006123ACD155280B6122F10741093D1
:10320300F552E552603114F553E551240A122E802C
:10321300FFAEF0122F10741193FDE552D39D4006BB
:103223007C007D00800AE551240D122E80FDACF058
:10323300123ACD155280CB22787FE4F6D8FD758102
:103243007E023282022B61E493A3F8E493A340034A
:10325300F68001F208DFF48029E493A3F8540724ED
:103263000CC8C333C4540F4420C8834004F45680AD
:103273000146F6DFE4800B01020408102040809031
:103283003953E47E019360BCA3FF543F30E50954F6
:103293001FFEE493A360010ECF54C025E060A84055
:1032A300B8E493A3FAE493A3F8E493A3C8C582C84C
:1032B300CAC583CAF0A3C8C582C8CAC583CADFE921
:1032C300DEE780BE12310F7B007AC8792F784C126B
:1032D3000247E4FBFAF9783F12004D12039B7B0D82
:1032E3007A007D027C001238D18F50E55025E0250D
:1032F300E0F5517DBB7F867E00123889EF64014E75
:1033030070127DCB7F89FE123889123ABBE5518F4B
:10331300F084F55175523FE552600FE551C3955264
:103323005008E552C313F55280EDE552FB7A007D58
:10333300707F077E041233D1AC50E41203677B0025
:103343007AC8792F784C12013E121329228E5A8F94
:103353005B8C5C8D5DC3E55B94C7E55A94055006B1
:103363007E037FFF80047E007F3F8E5E8F5FE4F5E8
:1033730060F561C3E55C64809480501AE55F2401C5
:10338300FFE4355EFEEF4261EE4260E55D255FFFDF
:10339300E55C355E800FE55D255FCFE55C355ECF8F
:1033A3002401CF3400FE123B11E55E5EFEE55F5F54
:1033B3004261EE4260AD61AC60AF5BAE5A123ACD92
:1033C300E5604480FCAD61AF5BAE5A023ACD8A7BC7
:1033D3008B7CA9058F828E831239A5AD07AC06E9D4
:1033E300C4540FFFE9540FFBC3EF9B04FF74FFFEAC
:1033F300A807088005C333CE33CED8F9F4FFEEF423
:10340300FEEFA803088005C333CE33CED8F9F57E8B
:103413008E7DE9540FFFE57CAE7BA807088005C3CA
:1034230033CE33CED8F9FFE57D5EFEE57E5FFFE563
:103433007EF4FBE57DF45CFCEB5DFDEC4EFCED4FB7
:10344300FDAF82AE83023ACD8F828E83C3E5829431
:10345300C7E583940550067E037FFF80047E007FCB
:103463003F8E5A8F5BAF82AE83E4FDFC123ACDAF41
:1034730082AE837D007C40123ACDAF82AE83123997
:10348300A58E5C8F5DAF82AE83E55C543FFCAD5D82
:10349300123ACDE55C555AFEE55D555BFFE55B24CD
:1034A30001FDE4355A555CFCE55D5D4C60077CFF2E
:1034B3007DFF120494227F207E001239A58E408F57
:1034C30041E4F5427902E4F543E54154FCFFE5406C
:1034D300FCEF4543FD7F207E00123ACDE543C394C4
:1034E30005502DE54325E0241A30011012371F1231
:1034F300372EE0FCA3E0FD123ACD800E12371F12E7
:1035030039A512372EEEF0A3EFF00542054380CC28
:1035130019E970B2AD41AC407F207E00023ACD1272
:10352300310F8F5F8E5E8D5D8C5C7DCB7F897E00DE
:10353300123889122EAA122EDB8F638E628D618C54
:10354300607DBB7F867E00123889EF4E7017300591
:1035530009AF63AE62AD61AC6022E4FBFA798078B7
:1035630040122EDB2230050AAF5FAE5EAD5DAC5C70
:103573008012E4FBFA79807840AF63AE62AD61AC50
:103583006012024722E55575F002A4FFAEF07C04F9
:103593003004027C027D42EF2DF557EE3CF556A236
:1035A300049205123522122EB5AF54AE53AD52AC70
:1035B30051120247784F122EC38F5B8E5A8D598C4E
:1035C3005878101205EDAD07AC06AF57AE56123A58
:1035D300CDE5572401FFE43556FEAC5AAD5B023A04
:1035E300CDE50CAD0DFCE4120362E4FBFA797A78C5
:1035F30044120247C004C005C006C007AC0BE41266
:103603000367D003D002D001D00012004D7B007AB3
:10361300247974784912013E8F258E248D238C22C0
:1036230030000A8F1C8E1B8D1A8C19800C8525186F
:10363300852417852316852215E4F59022C28CE58F
:1036430013F58CE514F58AC28DD28C308DFD7DFF88
:103653007F007E04123A897F0F7E041239A5E48F1E
:10366300778E76F575F5747F0E7E041239A57E008C
:10367300EF5403FFE4FCFDC004C005C006C007AF60
:1036830077AE76AD75AC747802120600D003D00223
:10369300D001D0001205C1228F4A8E498D488C4734
:1036A300E4FFFE7DA07C41AB4AAA49A948A8471282
:1036B300013E7B007AC8792F784C121C70F9783F51
:1036C300121C537B0D7A007D027C001238D1AC07AB
:1036D300E41203677B007AC8792F784C12013E7B92
:1036E300807A967918784B12004D12132922E4FF41
:1036F300FEFDFCAB35AA34A933A8320202E4742DD3
:10370300252FF8E622742B252FF8E622E52F25E056
:1037130025E024FEF582E43403F58322F582E434C4
:103723003FF583E493FE740193FF22E54225E024F1
:10373300EAF582E43403F58322AF3AAE39AD38AC0F
:1037430037228F3E8E3D8D3C8C3B7F057E011239A7
:10375300A58E3FEF54E9F540121C2CAB3EAA3DA9C0
:103763003CA83B1202E4600250124340107B017AF2
:1037730000E4FD7F0B7E011233D18003434006AD8D
:1037830040AC3F7F057E01023ACD7F207E00123997
:10379300A58E508F51E5515403640270307B01FABA
:1037A3007D107F20FE1233D17B017A00E4FD7F0D73
:1037B3007E011233D17B017A007DEE7F007E011200
:1037C30033D1AD51AC507F207E00123ACD227F2BF6
:1037D3007E001239A58F828E83E58364027F2B12CC
:1037E30038097F2B122F22123ACD7F207E00123907
:1037F300A58E838F82E58354557F201238097F205D
:10380300122F22023ACDFCAD827E00123ACD227FE6
:10381300827E001239A58F828E837F207E0012392B
:10382300A5AD07AC06ED54036401700843051453BA
:1038330082EB80064305285382F57F207E00123AEF
:10384300CDAD82AC837F827E00023ACD7907E92534
:10385300E024E6F582E4343FF583E493FE740193B8
:10386300FFE925E024F4F582E4343FF583E493FC97
:10387300740193FD123ACDD9D57BFF7AB97DF87FD8
:10388300207E010233D1A9051239A5AC06AD07E9A3
:10389300C4540F04FF74FFFEA807088005C333CE8A
:1038A30033CED8F9F4FFEEF45CFEED5FFFE9540F7D
:1038B300FDEFA805088005CEC313CE13D8F9FF2268
:1038C300FEC3E49559FDE49558FCAB59AA58C3EFE0
:1038D3009DEC6480F8EE6480985005AE04AF052239
:1038E300D3EF9BEA6480F8EE6480984005AE02AFA4
:1038F300032222C0E0C0D075D000C000C006C007BC
:103903007590FF7F02740A2FF8E6FE740B2FF8A65A
:1039130006DFF285800B759000D007D006D000D06B
:10392300D0D0E032123A1F123AA2D2A27D10D2A016
:10393300123AF1EB25E0FBEA33FA30A30343030128
:10394300C2A0123AF1DDE7D2A1D2A2AE02AF0322A6
:1039530004154A98968002130001011200021DFF0C
:103963000004194BEA6000C10AC189C108020E00B4
:103973002D0208020C0210040B007DFF7C7F7F0CDC
:103983007E02123ACD7D557F007E02123A897D0078
:103993007C807F0C7E02123ACD7D667F007E020220
:1039A3003A89123A1F123B01D2A27D10D2A0EB2515
:1039B300E0FBEA33FA30A303430301C2A0DDEDD2F7
:1039C300A1D2A2AE02AF0322C28CE51DF58CE51E87
:1039D300F58AC28DD28C308DFD3007067E017F23A0
:1039E30080047E007F8C7DDC123889227590FFAFC6
:1039F3000FAE0E1239A58F828E83AF09AE0812392E
:103A0300A5AD07AC06AF82AE83123ADF7F0022ABCF
:103A130005AA04C2A0C2A1EE4480FE22E4FBFAC2BE
:103A2300A0C2A1EE547FFE22EF25E0FFEE33FED2CB
:103A3300A022EFC3941550037F0122EFC3940D50CE
:103A4300037F0222EFC394087F0050027F03227D8D
:103A5300DC7F237E01123889EF64024E7002D32289
:103A6300D2061217E3EFC37001D3227590FFAF0F95
:103A7300AE0E1239A5123927AD07AC06AF11AE1041
:103A8300123ACD7F00228E788F798D7AE4FBFA1279
:103A930033D17B017A00AD7AAF79AE780233D17D31
:103AA30010C2A0123AF1EE3392A2123AF1123A2B5B
:103AB300123AF1DDECC2A02274017E00A80708804F
:103AC30005C333CE33CED8F9FF22123A12123B018B
:103AD300AF03AE02123B01D2A1D2A222123A1212BA
:103AE3003AA2AF03AE02123AA2D2A1D2A222C28C50
:103AF300758CFF758AF0C28DD28C308DFD227D10BE
:103B0300C2A0EE3392A2123A2BDDF5C2A022EE3010
:103B1300E707C3E49FFFE49EFE227590FF85800ABA
:103B2300D20AD20832000800040000FFFAFFF5FFB2
:103B3300F0FFECFFEAFFEAFFECFFF2FFFB000600F9
:103B4300140022002E0038003D003A0030001D0012
:103B530003FFE3FFC1FFA0FF85FF74FF72FF80FF38
:103B6300A2FFD40014005D00A700E80118012E0194
:103B73002300F4009F0029FF9AFEFEFE67FDE5FD8A
:103B83008CFD6EFD9AFE1AFEF30022019D0354057F
:103B930030071608E80A890BDE0CCD0D4903FF0038
:103BA3008000080084008500AE01010200020102CA
:103BB30002020804000001F0000001000C07FF07E7
:103BC300FF0000F8FF0007F0001801000C07FF07D3
:103BD300FFF10B010C010D010E010F011001110189
:103BE300120113011401150116011701180119011E
:103BF3001A04000401040204030407040A040C0465
:103C0300400441044204430409040804060405046F
:103C130004008188E5009E204030C609940083405B
:103C23003203DF008D00058180280C218C31802E2A
:103C330002008107FF07FF4000070010012098FFE3
:103C43003BA6FF3BB6FF3BC608FF3BD6FF3C162017
:103C5300160084008500AE010C010D01130115014E
:103C63001904000001F00000000046000C000000F1
:103C730000F8FF0007F000001A0046003CC0008077
:103C83000001000101010201030104010501060114
:103C93000701080109010A020002010202020802E7
:103CA3004004000401040204030407040A040C048E
:103CB3004005C005CB020302040205020602070207
:103CC3004104040405040604080409044105C1056C
:103CD300C205C305C405C505C605C705C805C9058D
:103CE300CA05CC00813408600131800A12008800C3
:103CF30007318C318C042661C1104C008D07FF07FE
:103D0300FF20700020008107FF07FF40000700101D
:103D1300002098002000FF2020FF3C54FF3C64FF5C
:103D23003C7408FF3C84FF3CE8321A700049AAE661
:103D3300004CF7F4904A9896804C1896804C3EBC01
:103D4300204CF7F4900085010D0113011400840049
:103D53008B00010100000400100400210000070192
:103D630088003C001FF83FC1FF00820086008700E7
:103D7300880089008A008C0100010101020103010E
:103D83000401050106010701080109010A010C01EB
:103D9300150116011701180119011A020002010287
:103DA30002020802400400040104020403040A049A
:103DB3000C044000810404040504060407040804F9
:103DC30009020302040205020602070209800349ED
:103DD300010400078000200514067B3409600131CB
:103DE30080061200880007318C318C042661C110D3
:103DF3004C88C500098180280C018C528B2E02004F
:103E03008D07FF07FF20700020008107FF07FF4099
:103E130000100120380020FF3D48FF3D54FF3D6066
:103E230006FF3D6CFF3DD032250108FA021E010159
:103E33001352020E01008200850100010C010D00E6
:103E430084008B8001000100000000001E0400219B
:103E5300001FFF000700010001001EF83FC1FF0023
:103E630086008700880089008A008C01050106010D
:103E73000701080109010A011501160117011801BB
:103E830019011A020002010202020802400400049E
:103E93000104020403040A040C04400441008104E5
:103EA30004040504060407040804090203020402C7
:103EB30005020602070241490104000780002005AC
:103EC30014067B3007318C318C058C61C1104C009A
:103ED3000D8180280C618C528C2E02008D07FF0708
:103EE300FF00700020008107FF07FF400010012042
:103EF300380020FF3E38FF3E46FF3E5407FF3E6238
:103F0300FF3EBA2C1E010AC8FF0001010AC8011FA7
:103F1300000108FA012B010081010F0126040A04A4
:103F23000C000100110021000200120022003200E7
:103F330013002300330043002400340044005400E2
:103F430035004500550065004600560066007600C2
:103F530057006700770087006800780088009800A2
:103F6300790089009900A900AA00BA00CA00DA0002
:103F7300DB00EB00FB010B011B012B013B014B01A0
:103F83005B016B017B018B019B01AB01BB01CB018E
:103F9300DB01EB01FB01FC01FD01FE01FF00210040
:103FA3002F00810082008400840085008500860044
:103FB3008C009200A700A800A800AD00AE0100018C
:103FC300040105010A010C01140115011A02000282
:103FD3000C024002610400040F0440046105000563
:103FE300A705C005C0011C011D011E011F01210100
:103FF300220123AD430400078036403404033F0607
:014003007B41
:00000001FF
