:10000000023225E4F912243CE9120022B93CF6E957
:10001000C39478500C12243CC37477991200228048
:10002000EE2225E02412F582E4343BF583E493FCD0
:09003000740193FD123AB7092294
:03003B000238E0A8
:10004300023B07020407E86480F8E933E8336011F0
:100053000460F0ED33EC337009E8FCE9FDEAFEEBF4
:10006300FF220460DED3EB9FEA9EE99DE8C2E78CA2
:10007300F0C2F795F0400CE8CCF8E9CDF9EACEFAF6
:10008300EBCFFB1203D285D0F05804700320D5B315
:10009300E80470075002B2D502041192D5EC046053
:1000A300F7E4CCC0E0C398F8603B94186008400DB7
:1000B300D0E0FB0203E9E4FBFAC9FC8028E830E462
:1000C30006E4C9FBE4CAFCE830E305E4C9CACBFC97
:1000D300E854076010F8C3E913F9EA13FAEB13FBCA
:1000E300EC13FCD8F130F52FC3E49CFCEF9BFFEE3F
:1000F3009AFEED99FDD0E0FBEF4E4D4C701222DBE2
:100103000302040EEC2CFCEF33FFEE33FEED33FD64
:10011300ED30E7EB0203E9EF2BFFEE3AFEED39FD9D
:10012300D0E0FB50130BBB0003020411ED13FDEEF3
:1001330013FEEF13FFEC13FC0203E9EC4D6011E82F
:10014300497017ED33EC3304600DE4FCFFFEFD2230
:10015300E933E8330470F80204071203D258046049
:1001630009E4CC24815006285009020411284003D5
:1001730002040EC0E0EB4A7044B98006D0E0FB02F3
:1001830003FDEF4E701CBD8008EBFFEAFEE9FD8026
:10019300EBE98DF0A4FEE5F0020227E9CDF9EAFED2
:1001A300EBFFEF89F0A4FCE5F0CE89F0A42EFFE489
:1001B30035F0CD89F0A42DFEE435F08067EF4E7065
:1001C30005BD80D780C3EF8BF0A4ACF0EE8BF0A419
:1001D3002CFCE435F0F8EF8AF0A42CE5F038FCE4CD
:1001E30033CB8DF0A42CFCE5F03BF8EE8AF0A42C85
:1001F300FCE5F038F8E433CF89F0A42CFCE5F038C3
:10020300CF3400CE89F0A42FFFE5F03EFEE433C9DE
:100213008DF0A42EFEE5F039CD8AF0A42FFFE5F092
:100223003EFEE43DFD33D0E0FB50070BBB000F0265
:100233000411EC2CFCEF33FFEE33FEED33FD020330
:10024300E9020411EC5D046005E85904700302043B
:10025300071203D2580460F6EC4860F2EC7004FD18
:10026300FEFF22C860DB2481C85009C39860025096
:100273000602040E9850CAF582E9294B4A7005AB71
:10028300820203FD75F0007C1A7880C3EF9BEE9A1F
:10029300ED99400DC3EF9BFFEE9AFEED99FDE84209
:1002A300F0DC23ACF0D0E0FFD0E0FED0E0FDAB8289
:1002B30020E7101BEB60BAEC2CFCEF33FFEE33FEB0
:1002C300ED33FD0203E9E803F830E705C0F075F00C
:1002D30000EF2FFFEE33FEED33FD40B830E7C28071
:1002E300AA74F8CC6480CCC86480C8F58204604FDB
:1002F300C3EB9FF5F0EA9E42F0E99D42F0E89C458E
:10030300F0603C501DE5825FFFE582D313CB5BCBEE
:10031300F42B5582FB50280ABA002409B90020089F
:10032300801DE5825BFBE582D313CF5FCFF4C3135C
:100333002F5582FF50090EBE00050DBD00010CC3F1
:10034300EB9FF5F0EA9E42F0E99D42F0E89C45F010
:100353006007CC4820E701B3EC2275F020800E75CE
:10036300F010800575F0087D007E007F003392D584
:1003730030D5031205CEEC334010EF33FFEE33FEDE
:10038300ED33FDEC33FCD5F0ED22E5F0247EA2D570
:1003930013CC92E7CDCEFF22EDD2E7CD33EC3392EF
:1003A300D524814006E4FFFEFDFC22FCE4CFCECD44
:1003B300CC24E0501174FF80EDC3CC13CCCD13CD0E
:1003C300CE13CECF13CF0470F030D5DE0205CEE9C5
:1003D300D2E7C933E833F892D5EDD2E7CD33EC3326
:1003E300FC5002B2D522EC30E7100FBF000C0EBE5A
:1003F30000080DBD00040BEB6014A2D5EB13FCED5C
:1004030092E7FD2274FFFCFDFEFF22E480F8A2D5F3
:1004130074FF13FC7D80E480EFED33EC3360100454
:10042300700FED547F7005740292E022740422046D
:1004330022E422ED33EC33600A047003BD8004EC44
:10044300B2E7FC22C0E0EFFBEEFAEDF9ECF81201A3
:100453003ED0E0F5F0EFFBEEFAEDF9ECF812061FF3
:10046300A3A3A3A3E8C0E0E9C0E0EAC0E0EBC0E0D7
:10047300C0F012013E12062FA3A3A3A312004DD076
:10048300F0D0E0FBD0E0FAD0E0F9D0E0F8D5F0D43A
:1004930022EF8DF0A4A8F0CF8CF0A428CE8DF0A489
:1004A3002EFE22BC000BBE0029EF8DF084FFADF0C1
:1004B30022E4CCF875F008EF2FFFEE33FEEC33FCAB
:1004C300EE9DEC984005FCEE9DFE0FD5F0E9E4CEE1
:1004D300FD22EDF8F5F0EE8420D21CFEADF075F0B0
:1004E30008EF2FFFED33FD4007985006D5F0F222B9
:1004F300C398FD0FD5F0EA22C2D5EC30E709B2D597
:10050300E4C39DFDE49CFCEE30E715B2D5E4C39F44
:10051300FFE49EFE1204A6C3E49DFDE49CFC80035D
:100523001204A630D507C3E49FFFE49EFE22BB015D
:100533000A89828A83E0F5F0A3E022500687F00956
:10054300E71922BBFE07E3F5F009E3192289828A42
:1005530083E493F5F074019322BB0110E58229F53E
:1005630082E5833AF583E0F5F0A3E0225009E9251B
:1005730082F886F008E622BBFE0AE92582F8E2F556
:10058300F008E222E5832AF583E993F5F0A3E993E2
:1005930022F8BB0111E58229F582E5833AF583E868
:1005A300F0E5F0A3F0225009E92582C8F608A6F089
:1005B30022BBFE09E92582C8F2E5F008F222EF4BDF
:1005C300FFEE4AFEED49FDEC48FC22C3E49FFFE445
:1005D3009EFEE49DFDE49CFC22EB9FF5F0EA9E4227
:1005E300F0E99D42F0E89C45F022E8600FECC3136C
:1005F300FCED13FDEE13FEEF13FFD8F122E8600FBD
:10060300EFC333FFEE33FEED33FDEC33FCD8F122C1
:10061300E0FCA3E0FDA3E0FEA3E0FF22E493FC746F
:100623000193FD740293FE740393FF22E493F87421
:100633000193F9740293FA740393FB22ECF0A3ED94
:10064300F0A3EEF0A3EFF022E493FB740193FA74AA
:100653000293F922D083D082F8E493701274019349
:10066300700DA3A393F8740193F5828883E47374E4
:1006730002936860EFA3A3A380DF8F258E248D23CD
:100683008C227F207E0012398F8E308F31752B0B99
:10069300752C0B752D1F752E1FC209C2011234A3B1
:1006A3007DFF7F817E00123873EF4E7040F52F126D
:1006B30009D67DFA7F087E011238737DFA1209F29A
:1006C3007DA67401FFFE1238737D951209F27D51E8
:1006D3007401FFFE123873AA06AB077D407F257EA7
:1006E300011233BB052FE52FC3940240C27B017A6D
:1006F300007DFF7F817E001233BBE4F52F1209D604
:100703007B1F7D95120A157B047D40120A15123654
:10071300F275F004A4FDACF01236EB75F040A4FFC3
:10072300E5F04CFEEF4D120A1FC201C2021219403E
:100733008F2A7D007C107F0A7E04123AB77D6612F1
:1007430009FE7D777F0C7E04123873EF4E70117BA8
:1007530001FA7DFE7F0C7E041233BB7DCC1209FEB1
:100763007F007E0412398FEE540FFEE52F25E0241F
:1007730026F8A60608A607052FE52FC39402500303
:10078300020700122DB4300A030209BEE4F52FE577
:100793002FC3940250F0C200E52F2401FFE433FE7F
:1007A300E53154FCFDEE4530FCEF4D7F207E001219
:1007B3000A09E6FC08E67F007E04120A09E6FE0841
:1007C300E6FFEE4480FCAD077F007E04123AB77F5C
:1007D3000F7E0412398FE48F3A8E39F538F5377F5F
:1007E3000E7E0412398F7E00EF5403FFE4FCFDC03C
:1007F30004C005C006C0071237267802120600D0CF
:1008030003D002D001D0001205C18F3A8E398D3842
:100813008C371236F9120613AB3AAA39A938A8371E
:10082300C31205DC70030209B9E4FFFEFDFCA8371F
:10083300C31205DC70030209B91237261236F91206
:10084300063F1236F2FFD39409500CC3740B9F7505
:10085300F003A4F5368008E6FFC3740F9FF536AFA7
:1008630025AE24AD23AC22E412035DC004C005C051
:1008730006C007123726E412035DA804A905AA06D9
:10088300AB07D007D006D005D004120247121D795A
:10089300E4FBFA79A0784112013E8F358E348D3313
:1008A3008C321236DB50447F007E407D017C00ABEE
:1008B3003AAA39A938A8371205DC402F1236EB249F
:1008C300F4FFE434FFFE7B1F7A00E4FDFC1238BB27
:1008D300742D252FF8A6071236F224FDFFE434FF0A
:1008E300FE7B0F1238BB742B02097B1236DB4019D7
:1008F3001236DB600250030209821236EBFFE53643
:10090300241FC39FD3940040761236EBFFC3741E9B
:1009130095362FF53BFC120367AB35AA34A933A8F0
:100923003212004D12039B7B3D7A00E4FDFC12382A
:10093300BBEF25E0FFEE33FE740E2FF582743F3ECE
:10094300F583E493F53C740193F53D540FF9F53EBB
:10095300E53CC4F854F0C8E53DC4540F48541FFFA8
:10096300F53F1236EBB53F071236F2653E60107461
:100973002B252FF8A601742D252FF8A607D20030BA
:1009830000341236EBFF123A1FEF753C003333335A
:1009930054F8F53B1236EB75F040A4FFE53B45F008
:1009A300FCE53C4FFD1236F275F004A4FFEC45F074
:1009B300FEED4F120A1F052F020792D2011234A334
:1009C300AD31AC307F207E00123AB71237BBD2096B
:1009D300AF2A22E52F2401FFE433FEE53154FCFD69
:1009E300EE4530FCEF4DFD7F207E00123AB722AA80
:1009F30006AB077F257E011233BB22E4FBFA7F0C93
:100A03007E041233BB22FD123AB7E52F25E02426DC
:100A1300F8227A007F0F7E011233BB22AC06440218
:100A2300FD7F267E01123AB7228F258E248D238CDB
:100A330022E4F528121D3B123873EF64014E702235
:100A4300FF7E247D747C4AAB25AA24A923A8221205
:100A530002E4500E752C00752B24752AF475294970
:100A63008016121D01AF25AE24AD23AC221202471E
:100A73008F2C8E2B8D2A8C29C2031221CBAF2CAE47
:100A83002BAD2AAC29120DBC8F28E5286003020C7C
:100A9300F7122DB47E3E7F1C7D007C271230607ED2
:100AA3003E7F167D007C271230607FFA7EED7DEB62
:100AB3007CBA121C96121C9F121C5A79A078411200
:100AC30002478F4E8E4D8D4C8C4B7F007E007D20D8
:100AD3007C411220B4C004C005C006C00712362AE8
:100AE300121CB6D003D002D001D00012013E120373
:100AF3009B8E268F277F607EFE7D4D7C4C121C963D
:100B03001202E460054003020C8AC2047F667E661B
:100B13007DA6121C007FE27EB87D007C4E12004948
:100B23008F538E528D518C501213298F28E52860D4
:100B330003020CF7C2047F667E667DA67C3F121C0F
:100B43009612013E8F548E538D528C51E4F55512FB
:100B530035727F407E547D897C4B121C961202E4D1
:100B63005011752D01752E177531A0753202752F31
:100B730008800F752D01752E16753170753201754C
:100B83002F017530007DFB7F167E011238738F3481
:100B9300852F3D85303EAB27AA26AD31AF2EAE2D36
:100BA300122A6C8F33EF6036B40204AF328005E54E
:100BB30032F404FFEF2534F534C364809480401E7F
:100BC300E5346480F8741F6480984012E534FB3385
:100BD30095E0FA7DFB7F167E011233BB80B2E533CD
:100BE300600675280C020CF7120D6F6003020CF7F8
:100BF300120D94121D3B1238738F35E53564036073
:100C030005E535B40212121BFA7F887E457DC87C48
:100C13004E121C5A79208015E535B4011B121BFABC
:100C23007FBB7EEE7DA07C4F121C5A797078C11277
:100C33001C3D8E338F348006752809020CF77BFF29
:100C43007A0FE4FDFCAF34AE331238BB8E338F34EE
:100C5300AB34AA337DB0120DA98F36E535B401024A
:100C63000536AF367E00121C771238BBAA06AB07D7
:100C73007DFC120DA9121C6F1238BBAA06AB07121A
:100C83001D421233BB8008120D6F7068120D9475EC
:100C93003D10753E00AB27AA267DB07F127E011260
:100CA3002A6CEF600575280D804A7F127E01123988
:100CB3008F8E2D8F2E7F177E0112398F8E2F8F30BF
:100CC3007F1A7E0112398F8E318F327F167E011289
:100CD300398FEE5407F5338F34121D111238738F89
:100CE300357DFD7F187E011238738F36121D421237
:100CF30038738F37D2031221CBE5286002FF22AD70
:100D03002EAC2D7F127E01123AB7AD30AC2F7F1778
:100D13007E01123AB7AD32AC317F1A7E01123AB777
:100D2300E5334480FCAD347F167E01123AB7E536D5
:100D3300C43354E04401FC748CFD7F187E01123AE5
:100D4300B7E53775F020A4ACF04410FD7F147E01A5
:100D5300123AB77B947A027DE57F197E011233BB89
:100D6300E535FB121D0F1233BB7F0022C204AB2CEF
:100D7300AA2BA92AA8297FE27EB87D007C4E120007
:100D8300498F538E528D518C501213298F28E52889
:100D930022C204852C54852B53852A52852951E47C
:100DA300F555123572227F127E011233BBAE33AF7B
:100DB300347C007D641204A6228F3B8E3A8D398CDD
:100DC300387F207E0012398F8E3C8F3D121D3B12DF
:100DD30038738F3E7D407F197E011238738F3F90A9
:100DE3003D1A121C19121C2D4010121D01903D1E9C
:100DF300121C1F121C2D600540037F08227E3E7FBC
:100E030004123190E53EFB7D107F131210D3E53FB2
:100E1300B41F047B168003E53FFB7D407F1912104E
:100E2300D3AF3BAE3AAD39AC38123685EF60012211
:100E33007B011210DBC2047553E27552B875510081
:100E430075504E121329EF6001227B021210DBD280
:100E53000475535675522175510375504E1213295B
:100E6300EF600122AD3DAC3C7F207E00123AB71209
:100E73003967D20475548075539675521875514B62
:100E8300E4F555123572C204E4F554F553F552F501
:100E930051F555123572121C256002500D7D017CEF
:100EA300001210EA7B0F7A008078E53ED39401406C
:100EB300197F887E457DC87C4E121C52792078C1EB
:100EC300121C3D121CAB8F428024E53E6401701B53
:100ED3007FBB7EEE7DA07C4F121C52797078C112CD
:100EE3001C3D121CABEF04F54280037F0922AF4285
:100EF300EF3395E0121C761238BBEFF5837BFF7A54
:100F03000FAF41AE401238BBEE4583FCEFFD12102C
:100F1300EAAE40AF41121CAF121C6F1238BBAA06D7
:100F2300AB07121D421233BBE53F75F00A84FCE4A4
:100F33001203678F4E8E4D8D4C8C4B7F667E667D84
:100F4300267C3F1220B4E4FBFA79D7784312013EA2
:100F53007B337AB379DC78C212004D7B9A7A997924
:100F6300A37841121C5A79807841121C3D8F40AFFF
:100F73003F123A1FEFFDAF40EF25E0FC7F1A7E01E1
:100F8300123AB77F407E547D897C4B121C2D40035F
:100F93000210207B021210C7E4FBFA12109A7FFCA6
:100FA3007EBE7D007C4F12024779CE121C387BFF38
:100FB3007A07E4FDFC1238BB8E448F457546057FE6
:100FC300C07EE17D647C4B121C4750037546047D53
:100FD300187C4B121C4350037546037D987C4A12C0
:100FE3001C4350037546027F007E1B7D377C4A12EB
:100FF3001C4750037546017F007EE67DAA7C49129B
:101003001C475003E4F546E54633333354F845446F
:10101300FCE545FD7F177E01123AB78071121C254E
:10102300600250557B011210C77B017A0012109A9F
:101033007F5E7ED07DB27C4F1202477948121C3806
:10104300121C8E1238BB8F447B807A967918784BAA
:10105300AF43AE42AD41AC40121C5A794078C01246
:101063001C3D7B077A00E4FDFC1238BB8F45EFFA89
:10107300E544FB7DA07F1680107B03121D0F123306
:10108300BB7B027A007DFD7F187E011233BB1237D2
:10109300771237FC7F00227DFD7F187E011233BB60
:1010A3007F667E667DA67C3FAB3BAA3AA939A8380A
:1010B30012013E8F438E428D418C40AB43AA42A91D
:1010C30041A840227A007D327F157E011233BB2274
:1010D3007A007E011233BB227A007D107F207E00CE
:1010E3001233BB123839227F127E01123AB7228F94
:1010F300328E318D308C2F7F207E0012398F8E33CC
:101103008F347E3E7FE0123190121CE212372F1291
:101113001C16121CEB1202E4600540030211B67F99
:10112300CD7ECC7D4C7C3F121CEB121C9F1212EF28
:101133007BCE7A4079E878B812013EC004C005C07E
:1011430006C0071212BF7B957AB77915782512016D
:101153003ED003D002D001D00012004DC004C00520
:10116300C006C0071213097B757AEC7935783B12F8
:10117300013ED003D002D001D00012004DC004C004
:1011830005C006C0077FB47E4E7DA87C41121D308A
:10119300D003D002D001D00012004D7B157AA37981
:1011A30041121C3B121C8A1238BBAA06AB077D7086
:1011B30002123F121CA2121CE21212EF7B347A0AB3
:1011C300795D78B912013EC004C005C006C007129C
:1011D30012BF7B667A277994783512013ED003D00B
:1011E30002D001D00012004DC004C005C006C007E4
:1011F3001213097BAC7A0D799C783C12013ED00323
:10120300D002D001D00012004DC004C005C006C0FA
:10121300077F437E727DB77C3F121D30D003D0021F
:10122300D001D00012004D7BC37AC7793E121C3B1C
:10123300121C8A1238BBAA06AB077DF87F097E0110
:101243001233BB121CE2123685EF6001227B0112BE
:1012530012D67B021212D6AD34AC337F207E00123D
:101263003AB7123967D20475540075532475527412
:1012730012131FD204853254853153853052852F82
:1012830051755501123572C2047554007553BA7500
:10129300525B12131FC2047F007E507DC37CC712B2
:1012A3001CEB12004D8F548E538D528C517555018A
:1012B3001235721237771237FC7F0022E4F54EF5B0
:1012C3004D754C80754B40AF38AE37AD36AC3512EB
:1012D30020B4227A007D107F207E001233BB7B0175
:1012E3007A007D117F1C7E011233BB221202478FCD
:1012F300388E378D368C35E4F54EF54D754C40758B
:101303004B401220B422E4F54EF54DF54C754B409D
:10131300AF38AE37AD36AC351220B422755149E43F
:10132300F555123572227F207E0012398F8E548F2D
:10133300557A003004047B0280027B017D107F20FC
:101343007E001233BB756207AF62123AA5AC06ADDD
:1013530007E4120362AB53AA52A951A85012013EEB
:101363008F598E588D578C567F667E7F7D62122EE5
:10137300B8400D7F267EE57DE5122EB8600540035B
:10138300D562C5E56224FFFBE434FFFA7D867F1F47
:101393007E011233BB7FAC7EE97DA3122EB87F00A2
:1013A300600440027F018F62EFFB7A007DAA7F1CFD
:1013B3007E011233BBE5622401FDE433FCE4120336
:1013C30062122EF112013E122E9FAF59AE58AD5745
:1013D300AC561202478F618E608D5F8C5E12039B49
:1013E300E412035D122E9FAF61AE60AD5FAC5E127F
:1013F3002EA88F5D8E5C8D5B8C5AE4FFFE7D807C16
:10140300C0AB61AA60A95FA85E12004D12039B7D69
:10141300D41214BBAF5DAE5CAD5BAC5A7810120551
:10142300ED7D301214BBE55DFFE55CFEAD07AC0658
:101433007F1D7E01123AB7C2057559FFE4F556E5E3
:10144300561214AED2061217CDEF702A7DA37F2158
:101453007E011238738F5AEF2480FFE434FFFE12AB
:101463003AFB8F5BE55BC395595009855B598556FC
:1014730057855A58D2050556E556C3940340C0E52F
:10148300571214AEE558FB7A007DA37F217E01122B
:1014930033BBAD55AC547F207E00123AB72005080C
:1014A3007F033004027F04227F0022FB7A007D2128
:1014B3007F217E011233BB22AB07AA067F1E7E016A
:1014C3001233BB228F568E558D548C53C204122E69
:1014D300E87FD77E3C7DAF7C4E120247E4FBFA796E
:1014E3008078BF12004D12039B8F58122EE87FEDB8
:1014F3007E127D667C4E12024712039B8F59E5597B
:101503002558FFE433C313EF13F55760021557E46F
:10151300F5667567FFF566E5572401FFE433FEEFD3
:1015230025E0FDEE33FCE4120362122EE812013EC5
:101533008F5B8E5A8D598C58122EF11202478F658C
:101543008E648D638C6212039B8E5C8F5DAC5CAD8D
:101553005D122E9BAF65AE64AD63AC62122EA88F95
:10156300618E608D5F8C5EE55D24FFFBE55C12168A
:1015730048E561FFE560FE12163AAF61AE60AD5F0C
:10158300AC5E121615E557121628EF70417D817F68
:101593008BFE1238738F68EF2480FFE434FFFE1252
:1015A3003AFB8F69E569C3956750218569679004A4
:1015B30006E557F0A3E568F0A3E55CF0A3E55DF06D
:1015C300AF61AE60AD5FAC5EA312063FD2040557B8
:1015D3000566E566C39403500302151A2004037FCE
:1015E3000222900409E024FFFB900408E01216484D
:1015F30090040A12061312163A90040A12061312E2
:101603001615900406E0121628BF01037F02227FFD
:10161300002278101205EDAB07AA067D307F887E85
:10162300001233BB22FB7A007DA37F897E00123335
:10163300BBC2061217CD22E4AB07AA067DF07F8753
:10164300FE1233BB2234FFFA7DD47F887E0012332F
:10165300BB227F207E0012398F8E2B8F2CE52C54DA
:101663000364017006FBFA7D448005E4FBFA7D33D5
:101673007F82FE1233BB7E3C7F2C1231901200031B
:101683001232B1A907E96001227B0112241B123334
:10169300BB1238397BFF7A007D707F207E011233C5
:1016A300BBD2041228A8C004C005C006C007122379
:1016B300F0122460D007D006D005D0041200497B75
:1016C300007A24797478C912004D8F308E2F8D2EB5
:1016D3008C2DC20412248B121329A907E960061268
:1016E30017C1AF01221224191233BB7A001224A8A6
:1016F3001233BB123A3C40061217C17F0422AD2CB1
:10170300AC2B7F207E00123AB7123967D204122322
:10171300F012240D1235721224B31238738F2D3048
:101723000154E4FBFA7D777F0C7E011233BBE52D78
:1017330064016006E52D64027039E5125403F52E49
:10174300FB7A001217B7E52E24FFFFE434FFFEEF08
:10175300F4FBEEF4FA7D217F0D7E011233BBE52D00
:10176300147F0070027F01E5121313543F6F602E44
:101773007F07227F0722E52D64016009E52D6402BE
:1017830060037F0722E52D2401FBE433FA1217B728
:101793007D657F0C1217AA7D437F0D1217AA12379E
:1017A300771237FC7F0022E52D6403FB7A007E016C
:1017B3001233BB227D877F0D7E011233BB22AD2CFA
:1017C300AC2B7F207E00123AB722E4F56D756E7F55
:1017D3007570807571FFF56FF572300613756A01C8
:1017E300756B21756CA3FBFA7D217F1C7E01801133
:1017F300756A00756B8B756C81E4FBFA7D217F86BE
:10180300FE1233BB7F657ECF7D0B7C39122EF11226
:101813002EB2C374FF9FF51E74FF9EF51DE4FBFA01
:1018230012192FBF03037F0122E4F573757440E59A
:1018330074604E122E8D246DF8E64574F612191B52
:101843008F75E575B4030C122E8D246DF8E665745F
:10185300F68026E57564027020122E8D246E122EFA
:101863008A246DF8E6D39F5010122E8D246FF876DC
:1018730001122E82246EF8A607E574C313F5748053
:10188300AE122E8D246EF8E6601F12191BEF640250
:10189300600E122E82246EF8E6C39F500C06800958
:1018A300122E8D246EF81680D80573E573C3940247
:1018B300500302182FE56DB47F0AE571B48005C3A8
:1018C300E570801FE5726018C3E56D956EFFC3E593
:1018D300709571FEC39F4008EE132571F573800B5D
:1018E300C3E56D956EC313256EF573E573FB7A003F
:1018F30012192FEF640260100573E573FB7A00ADD4
:101903006CAF6BAE6A1233BBA20692071239B5BF36
:1019130002037F00227F0122FB7A00AD6CAF6BAE26
:101923006A1233BBA20692071239B522AD6CAF6BB4
:10193300AE6A1233BBA20692071239B5227F207E0C
:101943000012398F8E418F42C2031221CBA2019222
:1019530003121AA68F40E54060030219F3122DB457
:10196300122CF43002030219F32001261224E4128C
:101973003873BF020C7D55121A84E4FBFA7D338061
:101983000A7D66121A84E4FBFA7D447F0D7E011200
:1019930033BB1224191233BB1224AA123873EF4E2D
:1019A300701BFA1224A81233BB7B0112241B1233BF
:1019B300BBE4FBFA7D117F1C7E011233BB121A9A22
:1019C300AF18AE17AD16AC15A201920312298B8F77
:1019D30040E540701B7DDD121A8F1224241233BBA5
:1019E3001223EE7847122404123572C2031226DF43
:1019F3007DA07F027E041238738E438F447DA07FC7
:101A0300017E041238738E458F467DB07F037E04BA
:101A13001238738E478F48D2031221CB121A9AE5DC
:101A2300406002FF22200227AB44AA437DA07F022D
:101A33007E041233BBAB46AA457DA07F017E041210
:101A430033BBAB48AA477DB07F037E041233BB127E
:101A530024551233BBE54230E007E4FBFA7D668090
:101A630005E4FBFA7D777FC07E051233BB7D201230
:101A73001A8FE4FBFA7D887F0C7E041233BB7F0050
:101A830022E4FBFA7F0C7E011233BB22E4FBFA7FD4
:101A93000C7E041233BB22AD42AC417F207E001288
:101AA3003AB7227F207E0012398F8E4A8F4B7E3DBC
:101AB3007F06123190E54B540364017006FBFA7DF7
:101AC300228005E4FBFA7D117F82FE1233BB3003D3
:101AD30027E51213135401FFC374029FF54CFB1245
:101AE30024B11233BB1224E4123873E51254036F8A
:101AF3007001EE60287F06221224E4123873EE7020
:101B030019EF14600B24FE600704700E7B01800242
:101B13007B021224B11233BB80037F0622122419E5
:101B23001233BB1224AA123873EF4E70327B01FAC0
:101B33007D107F20FE121BE6D2041228A8C004C029
:101B430005C006C0071223F0122460D007D006D0C8
:101B530005D00412004978CB122482C20480387B5A
:101B63000112241B1233BB123A3C40037F0322C2EF
:101B7300041228A88F4F8E4E8D4D8C4C12241912AF
:101B83001BE6D2041223F0AB4FAA4EA94DA84C1268
:101B9300004D784B1224821213298F49AD4BAC4A66
:101BA3007F207E00123AB7E5496002FF22123967AF
:101BB3001232B18F49E549600122120003D2047544
:101BC300544075535475520975514BE4F55512350C
:101BD300721223EE1224021235721237771237FC77
:101BE3007F00221233BB1238397BFF7A007D707F6E
:101BF300207E011233BB227FEC7E517D387C3FABCC
:101C03002CAA2BA92AA82912013EA804A905AA06D1
:101C1300AB0722903D26E4FBFAF9784012061F0237
:101C230002477F607EFE7D4D7C4CAB3BAA3AA939CF
:101C3300A8380202E4E4FBFA78C212004D02039BC7
:101C43007F807E96AB43AA42A941A8400202E4AB3F
:101C53003BAA3AA939A838120247E4FBFA22120632
:101C63001FAB25AA24A923A8220202E4C3740F9F51
:101C7300FFE49EFE7B0F7A00E4FDFC22AE3BAF3C0B
:101C8300E4FCFDC30205DC8E398F3A7BFF7A00E466
:101C9300FDFC22AB2CAA2BA92AA8292212013E7BE8
:101CA300007A2479747849228E408F417C007D64C8
:101CB3000204FBE412035D7B817A047935783F02E9
:101CC300013EE4FBFA7D417F40227DC87F0A7E010D
:101CD30022C3E5409544F540E53F9543F53F22AFE8
:101CE30032AE31AD30AC2F22AB32AA31A930A82F9E
:101CF30022E5442540F540E543353FF53F22E4FB2B
:101D0300FAF9784022853982853883227A007D3238
:101D13007F157E0122E493FE740193FF740293FD09
:101D230022740493FFAD3EED3395E0FC22AB38AA59
:101D330037A936A83502013E7D107F137E01227D2F
:101D4300857F147E01223E9248DA3ECCCCCD3F2AD9
:101D5300AAAB400000003F8000003F9837F03FB53A
:101D630004F33FD744FC3E3172173EB172173F056F
:101D730015913EDE5BD9D2018002C201EDD2E7F8B4
:101D8300CD33EC3304700BBD800592D502041102F0
:101D9300040740FBD31460F2F5F07C3FEE7A00C3F6
:101DA3009496C8948B40230AC89469C8941A401A1D
:101DB3000AC89468C8941F40110AC8945AC8942545
:101DC300400805F07A00CDC2E7CDC0F08C518D52AA
:101DD3008E538F54EA2323C0E02459F582E4341D43
:101DE300F58312062F12004DECC0E0EDC0E0EEC00B
:101DF300E0EFC0E012061FA851A952AA53AB541238
:101E03000049D0E0FBD0E0FAD0E0F9D0E0B2E7F847
:101E13001202478C518D528E538F54901D49740377
:101E2300120447A851A952AA53AB5412013ED0E061
:101E3300600F2465F582E4341DF58312062F12002A
:101E43004D8C518D528E538F54D0E0C3947FFDE45B
:101E53009400FC1203627B187A727931783F120185
:101E63003EA851A952AA53AB5412004D30010B7B2B
:101E7300D97A5B79DE783E12013E22752B50752CA0
:101E8300007D221224261233BB1224241233BB12E8
:101E930023EEE4FBFAF9784012013E7B007ABA792B
:101EA3005B784912240A1235727D407F197E011234
:101EB30038738F2D30010EE4F52EE52E7D967F13BA
:101EC300121F9180367D527F137E011238738F2E3D
:101ED30080291224D04003021F67E52EC3940F40CC
:101EE30003021F67052EE52EFB7A003001047D9661
:101EF30080027D527F137E011233BB12362A8E2F4E
:101F03008F3080CEE52DC394195061E52E640F7098
:101F13005B1224D05056E52DC39419504F052DE57F
:101F23002D7D407F19121F9112362A8E2F8F30ACD0
:101F33002FAD30E4120362C004C005C006C007AC75
:101F430031AD32E4120362122460D007D006D0050B
:101F5300D0041202477B667A667986783F1202E4E0
:101F630060025008852F318530328098C3E5309464
:101F730021E52F940B50057E007F05227D771224E7
:101F83006B1233BB1224691233BBE4FEFF22FB7ACC
:101F9300007E011233BB2212241D1238738F3D12AF
:101FA30024DA1233BBE4FBFA7D887F087E02123306
:101FB300BB1224241233BB1224C51233BB12245583
:101FC3001233BB752DA07536A0E53DB40117752BF3
:101FD30005752CC37534057535C47D441220A9E4F9
:101FE300FBFAFD8016752B05752CC5753405753503
:101FF300C67D551220A9E4FBFA7D117FC07E051230
:1020030033BBE4FDFCAF2CAE2B12333AE4FDFCAF43
:1020130035AE3412333AE4F52EF52FF537F538F5AE
:102023003E12242EE493FE740193FFC3E52F9FFF1A
:10203300E52E9EFE7BFF7A037D007CFC1238BB8E6F
:10204300308F3112242E740193252FFFE493352E04
:10205300FE1238BB8E328F3312242EE493FE7401AA
:1020630093FFC3E5389FFFE5379EFE1238BB8E39D9
:102073008F3A12242E7401932538FFE4933537FEEB
:102083001238BB8E3B8F3C7B007A00792B122C20BD
:102093007B007A007934122C20053EE53EC394037D
:1020A300500302202422E4FBFA7FC07E051233BBD7
:1020B300228F4A8E498D488C47E4FFFE7D807C3F0A
:1020C300AB4AAA49A948A8471202E47009AF4AAE2D
:1020D30049AD48AC4722AF4AAE49AD48AC471204BC
:1020E3001CFBAF4EAE4DAD4CAC4B12041CFFBF01FD
:1020F30008E4FFFE7D807C3F22EF64046022EB64F2
:1021030004601DBB0127E4FFFEFDFCAB4EAA4DA9F5
:102113004CA84B1202E460084006E4FFFEFDFC22DB
:1021230074FFF54EF54DF54CF54B0221C2E4F54F26
:10213300F550FFFEFDFCAB4AAA49A948A847120285
:10214300E4504BAF4EAE4DAD4CAC4B12039B8E4F98
:102153008F50AC4FAD50EC120362C8ECC8C9EDC947
:10216300CAEECACBEFCBAF4EAE4DAD4CAC4B12006B
:1021730049E4FBFAF9F81202E470A5AF4AAE49AD9F
:1021830048AC471204368F4A8E498D488C47AF4A74
:10219300AE49AD48AC47121D7DAB4EAA4DA94CA824
:1021A3004B12013E122FFE8F4E8E4D8D4C8C4BE504
:1021B3005030E00B1204368F4E8E4D8D4C8C4BAF4E
:1021C3004EAE4DAD4CAC4B22E4F549F54A7F20FEB3
:1021D30012398F8E4D8F4E20030A9003E8E54DF0A0
:1021E300A3E54EF07924E9605225E02486F582E4E4
:1021F300343FF583E493F54B740193F54CE925E003
:102203002488F582E4343FF583C3740193954CE449
:1022130093954B40223003051222BF80081222A05F
:10222300ECF0A3EDF0054AE54A70020549054CE5DB
:102233004C70CA054B80C6191980ABE4F9E924FD3B
:10224300FDE434FFFC7F207E00123AB7754B017525
:102253004C1C3003051222BF80081222A0ECF0A30D
:10226300EDF0054AE54A70020549054CE54C70025C
:10227300054BD39423E54B940140D709E9640270DD
:10228300BC30030D1237BB9003E8E0FCA3E0FD80F4
:1022930004AD4EAC4D7F207E00123AB722AF4CAE58
:1022A3004B12398FAC06AD07E54A25E0FFE549330C
:1022B300FE74002FF58274003EF58322E54A25E083
:1022C300FFE54933FE74002FF58274003EF583E089
:1022D300FCA3E0FDAF4CAE4B123AB7228F258E2400
:1022E3008D238C22903D22121C61400A903D2E12B8
:1022F3001C61600540037F0A22121D01AF25AE2435
:10230300AD23AC221202478F298E288D278C26906D
:102313003D26121C61601B4019903D2A121C61501E
:1023230011121D01903D2A121C1F8F298E288D2703
:102333008C26C2031221CBAF29AE28AD27AC2612BF
:1023430010F28F2AE52A7061122DB4121CC57E0487
:102353001233BB121CC57E021233BB7E3E7FFE7D51
:10236300007C27123060121C16AB29AA28A927A8C3
:10237300261202E4600250047D70800F7B027A0013
:102383007D607F1A7E011233BB7DF87F097E0112C7
:1023930024EB8F2A121CCD1238738E2B8F2C7F09BE
:1023A3007E0112398F8E2D8F2ED2031221CBE52A77
:1023B3006002FF22AB2CAA2B121CCD1233BB7D8CE7
:1023C3007C317F067E01123AB77D8C7F077E011236
:1023D3003AB7AD2EAC2D7F097E01123AB7AF29AEC5
:1023E30028AD27AC2612372F7F0022C204AF18AEC8
:1023F30017AD16AC1579A07840E4FBFA02024778D2
:10240300C77B007A5079C312004D8F548E538D527F
:102413008C51E4F555227B027A007D107F207E00EB
:10242300227D77E4FBFA7F0C7E0422E53E25E0243F
:102433008AF582E4343BF58322E975F0288475F04C
:1024430018A4FFE92400FDE43405CD2FFFED35F09A
:10245300FE227B017A007DFF7FC07E0522A804A9AE
:1024630005AA06AB07227D227B017A007F0C7E043E
:1024730022D3903D18740193954EE493954D227B9E
:10248300407A54790912004D8F538E528D518C50DE
:1024930022C3E568956AE567956922C3E5439545D7
:1024A300E5429544227B017D667F1C7E01227A00F2
:1024B3007DBA7F037E0122FEC3EF9401EE64809414
:1024C30080227B017A007D337F087E0222C3E530C0
:1024D300952CE52F952B227B017A00E4FDFF7E01ED
:1024E300227D877F0D7E01228E2F8F308D317532B5
:1024F30006121CC57E021233BB121CC57E041233A6
:10250300BB12362A121CB612039B8E338F347E0203
:102513001225DC7E041225DC12362A121C0DAE3382
:10252300AF34121C83500CE4F535753619D201C251
:1025330002800A75351F7536F6C201D202300106D4
:102543007E3E7FF280047E3E7FF8AD34AC331230A2
:1025530060920020004A121CCD123873EF6535706B
:1025630001EE703CAD31AF30AE2F1238738F37E5CB
:10257300376003B4FF037F0022AF36EF3395E0FEED
:10258300E5372FFFE43EFE121C8E1238BBAA06ABC2
:1025930007AD31AF30AE2F1233BB7B107A00801FF3
:1025A300300222121CCD1238738F370537AF377EB6
:1025B300007B1F7A00E4FDFC1238BB8F37EFFB1260
:1025C3001CCD1233BB1532200007E5326003022411
:1025D300F47F0E3000027F00227B017A007D417F71
:1025E300401233BB227F207E0012398F8E228F232D
:1025F300C2031221CBA20092011216558F24E524A7
:102603007043122DB4122CF4A2009201121E7E8F7D
:1026130024E5247030122CF41223EE7B007ABA796D
:102623005B784912240A123572121F9AC204755438
:10263300007553BA75525B755149E4F555123572FD
:10264300D2031226DF7DA07402FFFE1238738E259B
:102653008F267DA07F017E021238738E278F287DFF
:10266300B07F037E021238738E298F2AD203122180
:10267300CBAD23AC227F207E00123AB7E524600263
:10268300FF22AB26AA257DA07402FFFE1233BBAB4B
:1026930028AA277DA07F017E021233BBAB2AAA2979
:1026A3007DB07F037E021233BB1224551233BBE588
:1026B3002330E007E4FBFA7D448005E4FBFA7D5513
:1026C3007FC07E051233BB1224C51233BBE4FBFA71
:1026D3007D107F087E021233BB7F00227BFF7A3B93
:1026E30079128B498A4A894B755BA07552B03003C6
:1026F30010754E02754F017402F54CF54DF550807F
:102703000F754E04754F01754C04754D02755004D9
:102713007551037557007558807555FF7556807F41
:10272300501227C47DBF1227BA7DFF1227B212367B
:102733002A8E628F637DFF1227BA7DBFAF4FAE4EE5
:10274300123AB712362A8E648F65C3E5639565E541
:102753006295645008854C59854D5A8006854E59BB
:10276300854F5A7DFF7C071227B27560077561FF9D
:10277300755E05755FFF7F591227C4E5542410F574
:1027830058E43553F557E55424F0F556E55334FF33
:10279300F5557F501227C4AD5DAC5CAF5AAE5912EC
:1027A3003AB7AB54AA53AD52AF51AE500233BBAF9D
:1027B3004FAE4E123AB7227C07AF4DAE4C123AB72A
:1027C300228F6674FFF567F568A807E82405F8E625
:1027D300F56B08E6F56CA807E82407F8E6F56D083D
:1027E300E6F56EA807E6F57108E6F572A807E82492
:1027F30002F8E6F573FD1228998E698F6AC3E56EB8
:10280300956CFFE56D956B1224BA405E7C007D02EA
:102813001204FB8E6F8F70122494500BAD73122829
:10282300998E698F6A8014AB6CAA6BAD73AF72AE6D
:10283300711233BB12362A8E678F68D3E57094000A
:10284300E56F648094804022122494500FC3E56E98
:102853009570F56EE56D956FF56D80A1E570256C4E
:10286300F56CE56F356BF56B80931224945006AECF
:102873006BAF6C8004AE6DAF6EE5662403F8A606FD
:1028830008A607E5662403F8E6FA08E6FBAD73AF8E
:1028930072AE710233BBAB6EAA6DAF72AE711233FF
:1028A300BB12362A227F207E0012398F8E508F5121
:1028B3007A003004047B0280027B017D107F207E3E
:1028C300001233BB7DD07F1E7E011238738E528F70
:1028D300537F1D7E0112398FE4FCFDC004C005C087
:1028E30006C007FEE553122F13D003D002D001D048
:1028F300001205C18F578E568D558C547DAA7F1CAF
:102903007E01123873EF04F5587D867F1F7E011216
:102913003873EF04F559AD51AC507F207E00123A65
:10292300B7AF59122E94122F01C004C005C006C0C0
:1029330007AC58E4120367D003D002D001D00012D1
:10294300013EC004C005C006C007AF57AE56AD5523
:10295300AC54122EDAC004C005C006C007E552C449
:10296300F854F0C868FEE553C4540F482404122EEB
:10297300D2D003D002D001D00012004DD003D00238
:10298300D001D00012013E228F4C8E4B8D4A8C49D0
:102993007DFA7F087E011238738F4F7B017A007DA9
:1029A300DD7F0C7E041233BB1224241233BBC2041A
:1029B300AF4CAE4BAD4AAC491223F8122402123588
:1029C3007230032675500F800F1224744041155046
:1029D300E550648094804037E550FB3395E0FA7D01
:1029E300517401FFFE122A6180DF755002801012BC
:1029F3002474401B05500550E550D3940F5010E547
:102A030050FB7A007D527F137E01122A6180E0C35E
:102A1300E54D9410500F054F054FE54F9439500580
:102A2300122A4B80EA122474400E054FE54FD394CB
:102A33003E5005122A4B80EDC3E54E9421E54D949B
:102A43000B7F0050027F0522E54FFB7A007DFA7F62
:102A5300087E011233BB12362A8E4D8F4E2212335B
:102A6300BB12362A8E4D8F4E228E388F398D3A8A7D
:102A73003B8B3C12362A121C0D121C7F5002800124
:102A8300C39200AD3AAF39AE381238738E3F8F40E0
:102A9300E53AC4540FFFE53A540FFEC3EF9E04FF1B
:102AA300123AA5EF24FFF542EE34FFF541754300DA
:102AB300754401E54425E0F544E54333F54330002F
:102AC30005121CD48003121CF4122B2E1233BB12DA
:102AD300362A121C0D121C7F7F0050027F01A200B8
:102AE300E433B50713C3E544953EE543953D40C341
:102AF3007F013000027F0222D3E5449401E5439431
:102B0300004025E54313F543E54413F54412362A03
:102B1300121C0D121C7F4005121CF48003121CD4DE
:102B2300122B2E1233BB80D07F0022AB42AA41E48A
:102B3300FDFCAF40AE3F1238BB8E3F8F40AB40AA87
:102B43003FAD3AAF39AE38227581D0E4F5A2759125
:102B5300FFF59075A10775A9FF75A880758901C256
:102B6300A0D2A13008FDE50A1206572B9C002BA327
:102B7300012BA7022BAB032BAF042BB6052BC506EA
:102B83002BD4072BDB082BE2092BEA0A2C04112C8C
:102B93000D122C18FF00002C1BC2083009FD8042C7
:102BA300C200805FC2018064C2008002D20012357D
:102BB300CE8065AF18AE17AD16AC15120A2C8F90E8
:102BC3008056AF18AE17AD16AC151222DF8F90806A
:102BD300471239D98F908040123A588F90803985A7
:102BE3000B12E4F5908031E4F590C20A7F2DFE12BA
:102BF300398FE4FCFD780212060012067D8F908067
:102C030017D2001225E88F90800ED201C20212194A
:102C1300408F908003759006C208022B668B3F8A13
:102C230040894174FFF542F54390000512055CF5B8
:102C33004785F04690000712055CF54985F0481278
:102C43002CE38E448F45C3E5499547FFE5489546F8
:102C53001224BA405B7C007D021204FB8E4A8F4B28
:102C630012249EAB3FAA40A9415009122CE38E4483
:102C73008F458014120531FFAEF0AD47AC461233D9
:102C83003A12362A8E428F43E54B454A602212247C
:102C93009E500FC3E549954BF549E548954AF548DC
:102CA30080A4E54B2547F547E54A3546F54680962A
:102CB30012249E5006AE46AF478004AE48AF49ABE0
:102CC3003FAA40A941900003EE8FF012059412052C
:102CD30031FFAEF090000312055CFDACF002333A15
:102CE300120531FFAEF0AD49AC4812333A12362A21
:102CF30022754905754AC712241D1238738F4BE498
:102D0300FBFAFDFF7E011233BB1224691233BB129F
:102D130024551233BBE54BB401117D66122D8A7D18
:102D230022122D8A7D30122DAA801A7D77122D9FB3
:102D33007D33122D9F7DC0122DAA7402254AF54AB8
:102D4300E43549F5497FC17E0512398FEE54F070A1
:102D5300F4E4FBFA122D95C203AF4AAE49122F1CBD
:102D63007BFF7A07122D95E54A2401FFE43549FEDE
:102D7300C203122F1CE4FBFA7D227F0C7E04123364
:102D8300BB1224DA0233BBE4FBFA7FC07E051233A5
:102D9300BB227DA07F017E041233BB22E4FBFA7FBA
:102DA300C07E051233BB227CFF7FC27E05123AB779
:102DB300227D207F0A7E04123873E47E01A807086F
:102DC3008005C333CE33CED8F9F54A8E497DEC7FE7
:102DD300037E041238738F4BE54BC39406500F7474
:102DE30002A807088002C333D8FCF54B8003754B58
:102DF30001C20512350CE4FBFAF97840120247C010
:102E030004C005C006C007AC4BE41203671224607C
:102E1300D007D006D005D004120247C004C005C0B5
:102E230006C007AC49AD4AE4120362D003D002D016
:102E330001D0001202478F4F8E4E8D4D8C4CAF1C2C
:102E4300AE1BAD1AAC19AB4FAA4EA94DA84C12013B
:102E53003E794078411223FC12039BC374FF9FF514
:102E63001474FF9EF51322F582E43550F5831206A0
:102E73004B75F002E553A4F58285F08302055CE50A
:102E83007375F003A4246DF8E6FFE57375F003A4EE
:102E930022123AA5AC06AD07E4120362A804A90501
:102EA300AA06AB07221200497849E4FBFA7980129B
:102EB300013E02039B7C4FAB59AA58A957A856025F
:102EC30002E4AF5FAE5EAD5DAC5C0202472401FD80
:102ED300E43EFCE4020362E412035DE4FBFA79805E
:102EE3007849020247AB56AA55A954A85322AB1CF2
:102EF300AA1BA91AA8192285518285508322AF1CC7
:102F0300AE1BAD1AAC19020247AD82AC837E002220
:102F1300540FFFE478100206008E4C8F4D300306E9
:102F23007E037FFF80047E007F3F8E588F59AF4D15
:102F3300AE4C1234358E558F568E538F5412362A1B
:102F43008E4F8F508E518F52E5562401FFE4355535
:102F53001238ADAC06AD07122FBB122460AE4FAFD3
:102F630050E4FCFDC31205DC7FFF50027F018F5745
:102F7300754E08AF57EF3395E0FEE5562FFFE55545
:102F83003E1238AD8E558F56AD56AC55122FBB8EB3
:102F93004F8F50C3E5509552E54F9551500C854FD7
:102FA30051855052855553855654D54EC6AD54ACB4
:102FB30053AF4DAE4C02333AAF4DAE4C12333A12CF
:102FC300362A2233DA929E35B16011377FE5FE3916
:102FD3002184893AAEC3FF3C1D955B3D6358473E50
:102FE30075FDF03F3172183F800000C2D502041115
:102FF300020407BD80FA50F302040EED33EC3304F0
:1030030060F17B3B7AAA79B8783F12013EED33EC4D
:103013003392D5247B5011A2D570DB500BED448045
:1030230024045004A2D580CEEFFBEEFAEDF9ECF8C0
:1030330012039BEFF582F404FC12036712004DC0E8
:1030430082902FC67409120456ED33CC33D0F0921C
:10305300D525F0A2D57001C313CC13FD228E388F72
:10306300398C3A8D3B8F828E83121D181238738FE1
:103073003E12362A8E3C8F3DC3EF953BEE953A7F49
:103083000050027F01121D087405936F704B740387
:1030930093FF253EF53ED3EF64809480400F121DCD
:1030A30024D3ED9F7480F86C984002802C121D0885
:1030B300740393C364809480500D121D24C3ED9F49
:1030C3007480F86C984012121D08121D18E53EFB1F
:1030D3003395E0FA1233BB8098D3E53D953BE53C4D
:1030E300953A7F0040027F01121D08740593B507CE
:1030F30003D38001C3227DA37F897E00123873EF3F
:10310300122ED0C004C005C006C007E4FBFAF9784C
:1031130040122F01D003D002D001D0001202478FFA
:10312300678E668D658C647DD07F887E00123873D0
:103133008E688F697DF07F877E00123873E4FCFD13
:10314300C004C005C006C007FEE569122F13D003F3
:10315300D002D001D0001205C1122EDAC004C0057E
:10316300C006C007E568C4F854F0C868FEE569C442
:10317300540F48122ED0D003D002D001D000120039
:103183004DAB67AA66A965A86412013E228E508FD3
:10319300518F828E83740993F552E552604614F57C
:1031A30053122EFA122E71FFAEF0C006C007122E74
:1031B30074FFAEF012398FE5512406122E6AF4FD26
:1031C300E5F0F45EFEEF5DFF122EFAA3A3A3122E29
:1031D30071FDEE45F0FCEF4DFDD007D006123AB776
:1031E300155280B6122EFA741093F552E5526031DF
:1031F30014F553E551240A122E6AFFAEF0122EFA8B
:10320300741193FDE552D39D40067C007D00800A36
:10321300E551240D122E6AFDACF0123AB715528017
:10322300CB22787FE4F6D8FD75817E02326C022BC7
:103233004BE493A3F8E493A34003F68001F208DF81
:10324300F48029E493A3F85407240CC8C333C4546B
:103253000F4420C8834004F456800146F6DFE4801F
:103263000B010204081020408090393DE47E019355
:1032730060BCA3FF543F30E509541FFEE493A360F1
:10328300010ECF54C025E060A840B8E493A3FAE44C
:1032930093A3F8E493A3C8C582C8CAC583CAF0A39D
:1032A300C8C582C8CAC583CADFE9DEE780BE12305B
:1032B300F97B007AC8792F784C120247E4FBFAF9BC
:1032C300783F12004D12039B7B0D7A007D027C0038
:1032D3001238BB8F50E55025E025E0F5517DBB7FCB
:1032E300867E00123873EF64014E70127DCB7F89A6
:1032F300FE123873123AA5E5518FF084F5517552D9
:103303003FE552600FE551C395525008E552C31390
:10331300F55280EDE552FB7A007D707F077E041243
:1033230033BBAC50E41203677B007AC8792F784C27
:1033330012013E1214C7228E5A8F5B8C5C8D5DC3C3
:10334300E55B94C7E55A940550067E037FFF80042E
:103353007E007F3F8E5E8F5FE4F560F561C3E55CC1
:1033630064809480501AE55F2401FFE4355EFEEF2C
:103373004261EE4260E55D255FFFE55C355E800FEF
:10338300E55D255FCFE55C355ECF2401CF3400FEDC
:10339300123AFBE55E5EFEE55F5F4261EE4260ADC1
:1033A30061AC60AF5BAE5A123AB7E5604480FCADE6
:1033B30061AF5BAE5A023AB78A7B8B7CA9058F82D9
:1033C3008E8312398FAD07AC06E9C4540FFFE9545D
:1033D3000FFBC3EF9B04FF74FFFEA807088005C320
:1033E30033CE33CED8F9F4FFEEF4FEEFA803088012
:1033F30005C333CE33CED8F9F57E8E7DE9540FFF66
:10340300E57CAE7BA807088005C333CE33CED8F95D
:10341300FFE57D5EFEE57E5FFFE57EF4FBE57DF483
:103423005CFCEB5DFDEC4EFCED4FFDAF82AE830229
:103433003AB78F828E83C3E58294C7E583940550A0
:10344300067E037FFF80047E007F3F8E5A8F5BAF33
:1034530082AE83E4FDFC123AB7AF82AE837D007C7B
:1034630040123AB7AF82AE8312398F8E5C8F5DAF55
:1034730082AE83E55C543FFCAD5D123AB7E55C5523
:103483005AFEE55D555BFFE55B2401FDE4355A55C6
:103493005CFCE55D5D4C60077CFF7DFF12049422BC
:1034A3007F207E0012398F8E408F41E4F5427902EE
:1034B300E4F543E54154FCFFE540FCEF4543FD7F64
:1034C300207E00123AB7E543C39405502DE543250A
:1034D300E02404300110123709123718E0FCA3E08E
:1034E300FD123AB7800E12370912398F123718EED0
:1034F300F0A3EFF00542054380CC19E970B2AD416A
:10350300AC407F207E00023AB71230F98F5F8E5EA7
:103513008D5D8C5C7DCB7F897E00123873122E9477
:10352300122EC58F638E628D618C607DBB7F867E1C
:1035330000123873EF4E7017300509AF63AE62ADFA
:1035430061AC6022E4FBFA79807840122EC5223008
:10355300050AAF5FAE5EAD5DAC5C8012E4FBFA7949
:10356300807840AF63AE62AD61AC6012024722E582
:103573005575F002A4FFAEF07C043004027C027D9A
:1035830042EF2DF557EE3CF556A204920512350C89
:10359300122E9FAF54AE53AD52AC51120247784F27
:1035A300122EAD8F5B8E5A8D598C5878101205ED03
:1035B300AD07AC06AF57AE56123AB7E5572401FF35
:1035C300E43556FEAC5AAD5B023AB7E50CAD0DFCE3
:1035D300E4120362E4FBFA797A7844120247C004E6
:1035E300C005C006C007AC0BE4120367D003D002CA
:1035F300D001D00012004D7B007A247974784912EF
:10360300013E8F258E248D238C2230000A8F1C8E41
:103613001B8D1A8C19800C85251885241785231674
:10362300852215E4F59022C28CE513F58CE514F59B
:103633008AC28DD28C308DFD7DFF7F007E04123ACD
:10364300737F0F7E0412398FE48F778E76F575F5CD
:10365300747F0E7E0412398F7E00EF5403FFE4FC67
:10366300FDC004C005C006C007AF77AE76AD75AC2C
:10367300747802120600D003D002D001D0001205E4
:10368300C1228F4A8E498D488C47E4FFFE7DA07C82
:1036930041AB4AAA49A948A84712013E7B007AC810
:1036A300792F784C121C5AF9783F121C3D7B0D7A06
:1036B300007D027C001238BBAC07E41203677B0079
:1036C3007AC8792F784C12013E7B807A96791878E4
:1036D3004B12004D1214C722E4FFFEFDFCAB35AACA
:1036E30034A933A8320202E4742D252FF8E622749C
:1036F3002B252FF8E622E52F25E025E024FEF58291
:10370300E43403F58322F582E4343FF583E493FE46
:10371300740193FF22E54225E024EAF582E43403B1
:10372300F58322AF3AAE39AD38AC37228F3E8E3DAA
:103733008D3C8C3B7F057E0112398F8E3FEF54E920
:10374300F540121C16AB3EAA3DA93CA83B1202E46D
:10375300600250124340107B017A00E4FD7F0B7E30
:10376300011233BB8003434006AD40AC3F7F057E6F
:1037730001023AB77F207E0012398F8E508F51E5B8
:10378300515403640270307B01FA7D107F20FE12D6
:1037930033BB7B017A00E4FD7F0D7E011233BB7BDB
:1037A300017A007DEE7F007E011233BBAD51AC5038
:1037B3007F207E00123AB7227F2B7E0012398F8F33
:1037C300828E83E58364027F2B1237F37F2B122FC4
:1037D3000C123AB77F207E0012398F8E838F82E5D9
:1037E3008354557F201237F37F20122F0C023AB7F0
:1037F300FCAD827E00123AB7227F827E0012398F9F
:103803008F828E837F207E0012398FAD07AC06ED49
:103813005403640170084305145382EB8006430587
:10382300285382F57F207E00123AB7AD82AC837FA6
:10383300827E00023AB77907E925E024D0F582E4D5
:10384300343FF583E493FE740193FFE925E024DE1E
:10385300F582E4343FF583E493FC740193FD123A5B
:10386300B7D9D57BFF7AB97DF87F207E010233BBC0
:10387300A90512398FAC06AD07E9C4540F04FF74D0
:10388300FFFEA807088005C333CE33CED8F9F4FF73
:10389300EEF45CFEED5FFFE9540FFDEFA805088031
:1038A30005CEC313CE13D8F9FF22FEC3E49559FD09
:1038B300E49558FCAB59AA58C3EF9DEC6480F8EE2D
:1038C3006480985005AE04AF0522D3EF9BEA648071
:1038D300F8EE6480984005AE02AF032222C0E0C038
:1038E300D075D000C000C006C0077590FF7F02747A
:1038F3000A2FF8E6FE740B2FF8A606DFF285800B7D
:10390300759000D007D006D000D0D0D0E032123A64
:1039130009123A8CD2A27D10D2A0123ADBEB25E039
:10392300FBEA33FA30A303430301C2A0123ADBDDFF
:10393300E7D2A1D2A2AE02AF032204154A98968021
:1039430002130001011200021DFF0004194BEA607B
:1039530000C10AC189C108020E002D0208020C022F
:1039630010040B007DFF7C7F7F0C7E02123AB77D33
:10397300557F007E02123A737D007C807F0C7E02AD
:10398300123AB77D667F007E02023A73123A091239
:103993003AEBD2A27D10D2A0EB25E0FBEA33FA305A
:1039A300A303430301C2A0DDEDD2A1D2A2AE02AFB5
:1039B3000322C28CE51DF58CE51EF58AC28DD28CDF
:1039C300308DFD3007067E017F2380047E007F8CCF
:1039D3007DDC123873227590FFAF0FAE0E12398F54
:1039E3008F828E83AF09AE0812398FAD07AC06AF55
:1039F30082AE83123AC97F0022AB05AA04C2A0C2D9
:103A0300A1EE4480FE22E4FBFAC2A0C2A1EE547FE1
:103A1300FE22EF25E0FFEE33FED2A022EFC3941582
:103A230050037F0122EFC3940D50037F0222EFC3A3
:103A330094087F0050027F03227DDC7F237E0112E6
:103A43003873EF64024E7002D322D2061217CDEF01
:103A5300C37001D3227590FFAF0FAE0E12398F12D0
:103A63003911AD07AC06AF11AE10123AB77F002281
:103A73008E788F798D7AE4FBFA1233BB7B017A005F
:103A8300AD7AAF79AE780233BB7D10C2A0123ADBB8
:103A9300EE3392A2123ADB123A15123ADBDDECC294
:103AA300A02274017E00A807088005C333CE33CE5D
:103AB300D8F9FF221239FC123AEBAF03AE02123AE5
:103AC300EBD2A1D2A2221239FC123A8CAF03AE027E
:103AD300123A8CD2A1D2A222C28C758CFF758AF0C5
:103AE300C28DD28C308DFD227D10C2A0EE3392A206
:103AF300123A15DDF5C2A022EE30E707C3E49FFFBB
:103B0300E49EFE227590FF85800AD20AD208320015
:103B13000800040000FFFAFFF5FFF0FFECFFEAFFE7
:103B2300EAFFECFFF2FFFB000600140022002E0068
:103B330038003D003A0030001D0003FFE3FFC1FFE2
:103B4300A0FF85FF74FF72FF80FFA2FFD400140063
:103B53005D00A700E80118012E012300F4009F0077
:103B630029FF9AFEFEFE67FDE5FD8CFD6EFD9AFEC4
:103B73001AFEF30022019D03540530071608E80AD4
:103B8300890BDE0CCD0D4903FF0080000800840083
:103B93008500AE01010200020102020208040000D6
:103BA30001F0000001000C07FF07FF0000F8FF0011
:103BB30007F0001801000C07FF07FFF10B010C01D0
:103BC3000D010E010F011001110112011301140166
:103BD300150116011701180119011A040004010443
:103BE3000204030407040A040C04400441044204CD
:103BF3004304090408040604050404008188E5005D
:103C03009E204030C609940083403203DF008D00BC
:103C1300058180280C218C31802E02008107FF074B
:103C2300FF4000070010012098FF3B90FF3BA0FFDF
:103C33003BB008FF3BC0FF3C00201600840085001A
:103C4300AE010C010D01130115011904000001F06F
:103C53000000000046000C00000000F8FF0007F021
:103C630000001A0046003CC0008000010001010171
:103C7300020103010401050106010701080109010D
:103C83000A020002010202020802400400040104C5
:103C93000204030407040A040C044005C005CB0214
:103CA3000302040205020602070241040404050498
:103CB3000604080409044105C105C205C305C4057A
:103CC300C505C605C705C805C905CA05CC008134A5
:103CD30008600131800A1200880007318C318C049E
:103CE3002661C1104C008D07FF07FF2070002000E4
:103CF3008107FF07FF400007001000209800200005
:103D0300FF2020FF3C3EFF3C4EFF3C5E08FF3C6E25
:103D1300FF3CD2321A700049AAE6004CF7F4904AED
:103D23009896804C1896804C3EBC204CF7F490003B
:103D330085010D011301140084008B0001010000B3
:103D43000400100400210000070188003C001FF854
:103D53003FC1FF00820086008700880089008A0037
:103D63008C010001010102010301040105010601A7
:103D73000701080109010A010C01150116011701C8
:103D8300180119011A02000201020202080240048A
:103D930000040104020403040A040C044000810427
:103DA30004040504060407040804090203020402C8
:103DB3000502060207020980034901040007800087
:103DC300200514067B340960013180061200880047
:103DD30007318C318C042661C1104C88C5000981E0
:103DE30080280C018C528B2E02008D07FF07FF20C9
:103DF300700020008107FF07FF40001001203800FA
:103E030020FF3D32FF3D3EFF3D4A06FF3D56FF3D4D
:103E1300BA32250108FA021E01011352020E0100F3
:103E23008200850100010C010D0084008B800100DC
:103E33000100000000001E040021001FFF00070016
:103E4300010001001EF83FC1FF00860087008800C3
:103E530089008A008C010501060107010801090197
:103E63000A01150116011701180119011A020002AE
:103E730001020202080240040004010402040304D4
:103E83000A040C04400441008104040405040604EC
:103E930007040804090203020402050206020702DA
:103EA3004149010400078000200514067B300731D7
:103EB3008C318C058C61C1104C000D8180280C6104
:103EC3008C528C2E02008D07FF07FF00700020002C
:103ED3008107FF07FF4000100120380020FF3E222A
:103EE300FF3E30FF3E3E07FF3E4CFF3EA42C1E012B
:103EF3000AC8FF0001010AC8011F000108FA012BCB
:103F0300010081010F0126040A040C0001001100C5
:103F130021000200120022003200130023003300AC
:103F2300430024003400440054003500450055008C
:103F3300650046005600660076005700670077006C
:103F4300870068007800880098007900890099004C
:103F5300A900AA00BA00CA00DA00DB00EB00FB01EB
:103F63000B011B012B013B014B015B016B017B012E
:103F73008B019B01AB01BB01CB01DB01EB01FB011E
:103F8300FC01FD01FE01FF0021002F0081008200E2
:103F9300840084008500850086008C009200A700C1
:103FA300A800A800AD00AE010001040105010A014B
:103FB3000C01140115011A0200020C0240026104F3
:103FC30000040F04400461050005A705C005C001F6
:103FD3001C011D011E011F012101220123AD430408
:0B3FE30000078036403404033F067BDB
:00000001FF
